{
  "_format": "hh3-artifact-1",
  "contractName": "VaultT",
  "sourceName": "contracts/VaultT.sol",
  "abi": [
    {
      "inputs": [
        {
          "internalType": "contract IERC20",
          "name": "asset_",
          "type": "address"
        },
        {
          "internalType": "contract IERC4626",
          "name": "strategy_",
          "type": "address"
        },
        {
          "internalType": "address",
          "name": "owner_",
          "type": "address"
        }
      ],
      "stateMutability": "nonpayable",
      "type": "constructor"
    },
    {
      "inputs": [
        {
          "internalType": "address",
          "name": "spender",
          "type": "address"
        },
        {
          "internalType": "uint256",
          "name": "allowance",
          "type": "uint256"
        },
        {
          "internalType": "uint256",
          "name": "needed",
          "type": "uint256"
        }
      ],
      "name": "ERC20InsufficientAllowance",
      "type": "error"
    },
    {
      "inputs": [
        {
          "internalType": "address",
          "name": "sender",
          "type": "address"
        },
        {
          "internalType": "uint256",
          "name": "balance",
          "type": "uint256"
        },
        {
          "internalType": "uint256",
          "name": "needed",
          "type": "uint256"
        }
      ],
      "name": "ERC20InsufficientBalance",
      "type": "error"
    },
    {
      "inputs": [
        {
          "internalType": "address",
          "name": "approver",
          "type": "address"
        }
      ],
      "name": "ERC20InvalidApprover",
      "type": "error"
    },
    {
      "inputs": [
        {
          "internalType": "address",
          "name": "receiver",
          "type": "address"
        }
      ],
      "name": "ERC20InvalidReceiver",
      "type": "error"
    },
    {
      "inputs": [
        {
          "internalType": "address",
          "name": "sender",
          "type": "address"
        }
      ],
      "name": "ERC20InvalidSender",
      "type": "error"
    },
    {
      "inputs": [
        {
          "internalType": "address",
          "name": "spender",
          "type": "address"
        }
      ],
      "name": "ERC20InvalidSpender",
      "type": "error"
    },
    {
      "inputs": [
        {
          "internalType": "address",
          "name": "receiver",
          "type": "address"
        },
        {
          "internalType": "uint256",
          "name": "assets",
          "type": "uint256"
        },
        {
          "internalType": "uint256",
          "name": "max",
          "type": "uint256"
        }
      ],
      "name": "ERC4626ExceededMaxDeposit",
      "type": "error"
    },
    {
      "inputs": [
        {
          "internalType": "address",
          "name": "receiver",
          "type": "address"
        },
        {
          "internalType": "uint256",
          "name": "shares",
          "type": "uint256"
        },
        {
          "internalType": "uint256",
          "name": "max",
          "type": "uint256"
        }
      ],
      "name": "ERC4626ExceededMaxMint",
      "type": "error"
    },
    {
      "inputs": [
        {
          "internalType": "address",
          "name": "owner",
          "type": "address"
        },
        {
          "internalType": "uint256",
          "name": "shares",
          "type": "uint256"
        },
        {
          "internalType": "uint256",
          "name": "max",
          "type": "uint256"
        }
      ],
      "name": "ERC4626ExceededMaxRedeem",
      "type": "error"
    },
    {
      "inputs": [
        {
          "internalType": "address",
          "name": "owner",
          "type": "address"
        },
        {
          "internalType": "uint256",
          "name": "assets",
          "type": "uint256"
        },
        {
          "internalType": "uint256",
          "name": "max",
          "type": "uint256"
        }
      ],
      "name": "ERC4626ExceededMaxWithdraw",
      "type": "error"
    },
    {
      "inputs": [
        {
          "internalType": "address",
          "name": "owner",
          "type": "address"
        }
      ],
      "name": "OwnableInvalidOwner",
      "type": "error"
    },
    {
      "inputs": [
        {
          "internalType": "address",
          "name": "account",
          "type": "address"
        }
      ],
      "name": "OwnableUnauthorizedAccount",
      "type": "error"
    },
    {
      "inputs": [],
      "name": "ReentrancyGuardReentrantCall",
      "type": "error"
    },
    {
      "inputs": [
        {
          "internalType": "address",
          "name": "token",
          "type": "address"
        }
      ],
      "name": "SafeERC20FailedOperation",
      "type": "error"
    },
    {
      "inputs": [],
      "name": "StrategyAssetMismatch",
      "type": "error"
    },
    {
      "inputs": [],
      "name": "ZeroAddress",
      "type": "error"
    },
    {
      "anonymous": false,
      "inputs": [
        {
          "indexed": true,
          "internalType": "address",
          "name": "owner",
          "type": "address"
        },
        {
          "indexed": true,
          "internalType": "address",
          "name": "spender",
          "type": "address"
        },
        {
          "indexed": false,
          "internalType": "uint256",
          "name": "value",
          "type": "uint256"
        }
      ],
      "name": "Approval",
      "type": "event"
    },
    {
      "anonymous": false,
      "inputs": [
        {
          "indexed": true,
          "internalType": "address",
          "name": "sender",
          "type": "address"
        },
        {
          "indexed": true,
          "internalType": "address",
          "name": "owner",
          "type": "address"
        },
        {
          "indexed": false,
          "internalType": "uint256",
          "name": "assets",
          "type": "uint256"
        },
        {
          "indexed": false,
          "internalType": "uint256",
          "name": "shares",
          "type": "uint256"
        }
      ],
      "name": "Deposit",
      "type": "event"
    },
    {
      "anonymous": false,
      "inputs": [
        {
          "indexed": true,
          "internalType": "address",
          "name": "previousOwner",
          "type": "address"
        },
        {
          "indexed": true,
          "internalType": "address",
          "name": "newOwner",
          "type": "address"
        }
      ],
      "name": "OwnershipTransferred",
      "type": "event"
    },
    {
      "anonymous": false,
      "inputs": [
        {
          "indexed": true,
          "internalType": "address",
          "name": "from",
          "type": "address"
        },
        {
          "indexed": true,
          "internalType": "address",
          "name": "to",
          "type": "address"
        },
        {
          "indexed": false,
          "internalType": "uint256",
          "name": "value",
          "type": "uint256"
        }
      ],
      "name": "Transfer",
      "type": "event"
    },
    {
      "anonymous": false,
      "inputs": [
        {
          "indexed": true,
          "internalType": "address",
          "name": "sender",
          "type": "address"
        },
        {
          "indexed": true,
          "internalType": "address",
          "name": "receiver",
          "type": "address"
        },
        {
          "indexed": true,
          "internalType": "address",
          "name": "owner",
          "type": "address"
        },
        {
          "indexed": false,
          "internalType": "uint256",
          "name": "assets",
          "type": "uint256"
        },
        {
          "indexed": false,
          "internalType": "uint256",
          "name": "shares",
          "type": "uint256"
        }
      ],
      "name": "Withdraw",
      "type": "event"
    },
    {
      "inputs": [
        {
          "internalType": "address",
          "name": "owner",
          "type": "address"
        },
        {
          "internalType": "address",
          "name": "spender",
          "type": "address"
        }
      ],
      "name": "allowance",
      "outputs": [
        {
          "internalType": "uint256",
          "name": "",
          "type": "uint256"
        }
      ],
      "stateMutability": "view",
      "type": "function"
    },
    {
      "inputs": [
        {
          "internalType": "address",
          "name": "spender",
          "type": "address"
        },
        {
          "internalType": "uint256",
          "name": "value",
          "type": "uint256"
        }
      ],
      "name": "approve",
      "outputs": [
        {
          "internalType": "bool",
          "name": "",
          "type": "bool"
        }
      ],
      "stateMutability": "nonpayable",
      "type": "function"
    },
    {
      "inputs": [],
      "name": "asset",
      "outputs": [
        {
          "internalType": "address",
          "name": "",
          "type": "address"
        }
      ],
      "stateMutability": "view",
      "type": "function"
    },
    {
      "inputs": [
        {
          "internalType": "address",
          "name": "account",
          "type": "address"
        }
      ],
      "name": "balanceOf",
      "outputs": [
        {
          "internalType": "uint256",
          "name": "",
          "type": "uint256"
        }
      ],
      "stateMutability": "view",
      "type": "function"
    },
    {
      "inputs": [
        {
          "internalType": "uint256",
          "name": "shares",
          "type": "uint256"
        }
      ],
      "name": "convertToAssets",
      "outputs": [
        {
          "internalType": "uint256",
          "name": "",
          "type": "uint256"
        }
      ],
      "stateMutability": "view",
      "type": "function"
    },
    {
      "inputs": [
        {
          "internalType": "uint256",
          "name": "assets",
          "type": "uint256"
        }
      ],
      "name": "convertToShares",
      "outputs": [
        {
          "internalType": "uint256",
          "name": "",
          "type": "uint256"
        }
      ],
      "stateMutability": "view",
      "type": "function"
    },
    {
      "inputs": [],
      "name": "decimals",
      "outputs": [
        {
          "internalType": "uint8",
          "name": "",
          "type": "uint8"
        }
      ],
      "stateMutability": "view",
      "type": "function"
    },
    {
      "inputs": [
        {
          "internalType": "uint256",
          "name": "assets",
          "type": "uint256"
        },
        {
          "internalType": "address",
          "name": "receiver",
          "type": "address"
        }
      ],
      "name": "deposit",
      "outputs": [
        {
          "internalType": "uint256",
          "name": "",
          "type": "uint256"
        }
      ],
      "stateMutability": "nonpayable",
      "type": "function"
    },
    {
      "inputs": [
        {
          "internalType": "address",
          "name": "",
          "type": "address"
        }
      ],
      "name": "maxDeposit",
      "outputs": [
        {
          "internalType": "uint256",
          "name": "",
          "type": "uint256"
        }
      ],
      "stateMutability": "view",
      "type": "function"
    },
    {
      "inputs": [
        {
          "internalType": "address",
          "name": "",
          "type": "address"
        }
      ],
      "name": "maxMint",
      "outputs": [
        {
          "internalType": "uint256",
          "name": "",
          "type": "uint256"
        }
      ],
      "stateMutability": "view",
      "type": "function"
    },
    {
      "inputs": [
        {
          "internalType": "address",
          "name": "owner",
          "type": "address"
        }
      ],
      "name": "maxRedeem",
      "outputs": [
        {
          "internalType": "uint256",
          "name": "",
          "type": "uint256"
        }
      ],
      "stateMutability": "view",
      "type": "function"
    },
    {
      "inputs": [
        {
          "internalType": "address",
          "name": "owner",
          "type": "address"
        }
      ],
      "name": "maxWithdraw",
      "outputs": [
        {
          "internalType": "uint256",
          "name": "",
          "type": "uint256"
        }
      ],
      "stateMutability": "view",
      "type": "function"
    },
    {
      "inputs": [
        {
          "internalType": "uint256",
          "name": "shares",
          "type": "uint256"
        },
        {
          "internalType": "address",
          "name": "receiver",
          "type": "address"
        }
      ],
      "name": "mint",
      "outputs": [
        {
          "internalType": "uint256",
          "name": "",
          "type": "uint256"
        }
      ],
      "stateMutability": "nonpayable",
      "type": "function"
    },
    {
      "inputs": [],
      "name": "name",
      "outputs": [
        {
          "internalType": "string",
          "name": "",
          "type": "string"
        }
      ],
      "stateMutability": "view",
      "type": "function"
    },
    {
      "inputs": [],
      "name": "owner",
      "outputs": [
        {
          "internalType": "address",
          "name": "",
          "type": "address"
        }
      ],
      "stateMutability": "view",
      "type": "function"
    },
    {
      "inputs": [
        {
          "internalType": "uint256",
          "name": "assets",
          "type": "uint256"
        }
      ],
      "name": "previewDeposit",
      "outputs": [
        {
          "internalType": "uint256",
          "name": "",
          "type": "uint256"
        }
      ],
      "stateMutability": "view",
      "type": "function"
    },
    {
      "inputs": [
        {
          "internalType": "uint256",
          "name": "shares",
          "type": "uint256"
        }
      ],
      "name": "previewMint",
      "outputs": [
        {
          "internalType": "uint256",
          "name": "",
          "type": "uint256"
        }
      ],
      "stateMutability": "view",
      "type": "function"
    },
    {
      "inputs": [
        {
          "internalType": "uint256",
          "name": "shares",
          "type": "uint256"
        }
      ],
      "name": "previewRedeem",
      "outputs": [
        {
          "internalType": "uint256",
          "name": "",
          "type": "uint256"
        }
      ],
      "stateMutability": "view",
      "type": "function"
    },
    {
      "inputs": [
        {
          "internalType": "uint256",
          "name": "assets",
          "type": "uint256"
        }
      ],
      "name": "previewWithdraw",
      "outputs": [
        {
          "internalType": "uint256",
          "name": "",
          "type": "uint256"
        }
      ],
      "stateMutability": "view",
      "type": "function"
    },
    {
      "inputs": [
        {
          "internalType": "uint256",
          "name": "shares",
          "type": "uint256"
        },
        {
          "internalType": "address",
          "name": "receiver",
          "type": "address"
        },
        {
          "internalType": "address",
          "name": "owner_",
          "type": "address"
        }
      ],
      "name": "redeem",
      "outputs": [
        {
          "internalType": "uint256",
          "name": "",
          "type": "uint256"
        }
      ],
      "stateMutability": "nonpayable",
      "type": "function"
    },
    {
      "inputs": [],
      "name": "renounceOwnership",
      "outputs": [],
      "stateMutability": "nonpayable",
      "type": "function"
    },
    {
      "inputs": [],
      "name": "strategy",
      "outputs": [
        {
          "internalType": "contract IERC4626",
          "name": "",
          "type": "address"
        }
      ],
      "stateMutability": "view",
      "type": "function"
    },
    {
      "inputs": [],
      "name": "symbol",
      "outputs": [
        {
          "internalType": "string",
          "name": "",
          "type": "string"
        }
      ],
      "stateMutability": "view",
      "type": "function"
    },
    {
      "inputs": [],
      "name": "totalAssets",
      "outputs": [
        {
          "internalType": "uint256",
          "name": "",
          "type": "uint256"
        }
      ],
      "stateMutability": "view",
      "type": "function"
    },
    {
      "inputs": [],
      "name": "totalSupply",
      "outputs": [
        {
          "internalType": "uint256",
          "name": "",
          "type": "uint256"
        }
      ],
      "stateMutability": "view",
      "type": "function"
    },
    {
      "inputs": [
        {
          "internalType": "address",
          "name": "to",
          "type": "address"
        },
        {
          "internalType": "uint256",
          "name": "value",
          "type": "uint256"
        }
      ],
      "name": "transfer",
      "outputs": [
        {
          "internalType": "bool",
          "name": "",
          "type": "bool"
        }
      ],
      "stateMutability": "nonpayable",
      "type": "function"
    },
    {
      "inputs": [
        {
          "internalType": "address",
          "name": "from",
          "type": "address"
        },
        {
          "internalType": "address",
          "name": "to",
          "type": "address"
        },
        {
          "internalType": "uint256",
          "name": "value",
          "type": "uint256"
        }
      ],
      "name": "transferFrom",
      "outputs": [
        {
          "internalType": "bool",
          "name": "",
          "type": "bool"
        }
      ],
      "stateMutability": "nonpayable",
      "type": "function"
    },
    {
      "inputs": [
        {
          "internalType": "address",
          "name": "newOwner",
          "type": "address"
        }
      ],
      "name": "transferOwnership",
      "outputs": [],
      "stateMutability": "nonpayable",
      "type": "function"
    },
    {
      "inputs": [
        {
          "internalType": "uint256",
          "name": "assets",
          "type": "uint256"
        },
        {
          "internalType": "address",
          "name": "receiver",
          "type": "address"
        },
        {
          "internalType": "address",
          "name": "owner_",
          "type": "address"
        }
      ],
      "name": "withdraw",
      "outputs": [
        {
          "internalType": "uint256",
          "name": "",
          "type": "uint256"
        }
      ],
      "stateMutability": "nonpayable",
      "type": "function"
    }
  ],
  "bytecode": "0x60e060405234801561000f575f5ffd5b50604051611dda380380611dda83398101604081905261002e91610453565b80836040518060400160405280601481526020017f4f55434855492d54205661756c742053686172650000000000000000000000008152506040518060400160405280600381526020016227aa2b60e91b81525081600390816100919190610534565b50600461009e8282610534565b5050505f5f6100b28361025860201b60201c565b91509150816100c25760126100c4565b805b60ff1660a05250506001600160a01b03908116608052811661010057604051631e4fbdf760e01b81525f60048201526024015b60405180910390fd5b610109816102e9565b5060017f9b779b17422d0df92223018b32b4d1fa46e071723d6817e2486d003becc55f00556001600160a01b0383166101555760405163d92e233d60e01b815260040160405180910390fd5b6001600160a01b03821661017c5760405163d92e233d60e01b815260040160405180910390fd5b6001600160a01b0381166101a35760405163d92e233d60e01b815260040160405180910390fd5b826001600160a01b0316826001600160a01b03166338d52e0f6040518163ffffffff1660e01b8152600401602060405180830381865afa1580156101e9573d5f5f3e3d5ffd5b505050506040513d601f19601f8201168201806040525081019061020d91906105ee565b6001600160a01b03161461023457604051636bda787360e11b815260040160405180910390fd5b6001600160a01b0380831660c052610250908416835f1961033a565b505050610610565b5f808061026460405190565b6040805160048152602481019091526020810180516001600160e01b0390811663313ce56760e01b179091529192505f9182916102a4918891906103b916565b5090925090506102b383604052565b8180156102c1575060203d10155b80156102ce575060ff8111155b6102d9575f5f6102dd565b6001815b94509450505050915091565b600580546001600160a01b038381166001600160a01b0319831681179093556040519116919082907f8be0079c531659141344cd1fd0a4f28419497f9722a3daafe3b4186f6b6457e0905f90a35050565b6103468383835f6103da565b6103b45761035783835f60016103da565b61037f57604051635274afe760e01b81526001600160a01b03841660048201526024016100f7565b61038c83838360016103da565b6103b457604051635274afe760e01b81526001600160a01b03841660048201526024016100f7565b505050565b5f5f5f60405f855160208701885afa92505f51915060205190509250925092565b60405163095ea7b360e01b5f8181526001600160a01b038616600452602485905291602083604481808b5af1925060015f51148316610430578383151615610424573d5f823e3d81fd5b5f873b113d1516831692505b60405250949350505050565b6001600160a01b0381168114610450575f5ffd5b50565b5f5f5f60608486031215610465575f5ffd5b83516104708161043c565b60208501519093506104818161043c565b60408501519092506104928161043c565b809150509250925092565b634e487b7160e01b5f52604160045260245ffd5b600181811c908216806104c557607f821691505b6020821081036104e357634e487b7160e01b5f52602260045260245ffd5b50919050565b601f8211156103b457805f5260205f20601f840160051c8101602085101561050e5750805b601f840160051c820191505b8181101561052d575f815560010161051a565b5050505050565b81516001600160401b0381111561054d5761054d61049d565b6105618161055b84546104b1565b846104e9565b6020601f821160018114610593575f831561057c5750848201515b5f19600385901b1c1916600184901b17845561052d565b5f84815260208120601f198516915b828110156105c257878501518255602094850194600190920191016105a2565b50848210156105df57868401515f19600387901b60f8161c191681555b50505050600190811b01905550565b5f602082840312156105fe575f5ffd5b81516106098161043c565b9392505050565b60805160a05160c0516117686106725f395f818161033c015281816104db01528181610dd30152610f1301525f61092501525f818161027a0152818161043201528181610d2801528181610e51015281816111a4015261123c01526117685ff3fe608060405234801561000f575f5ffd5b50600436106101c6575f3560e01c80638da5cb5b116100fe578063ba0876521161009e578063d905777e1161006e578063d905777e146103d0578063dd62ed3e146103e3578063ef8b30f7146103aa578063f2fde38b1461041b575f5ffd5b8063ba08765214610397578063c63d75b6146102b2578063c6e6f592146103aa578063ce96cb77146103bd575f5ffd5b8063a8c62e76116100d9578063a8c62e7614610337578063a9059cbb1461035e578063b3d7f6b914610371578063b460af9414610384575f5ffd5b80638da5cb5b1461030b57806394bf804d1461031c57806395d89b411461032f575f5ffd5b8063313ce567116101695780634cdad506116101445780634cdad506146101fa5780636e553f65146102c657806370a08231146102d9578063715018a614610301575f5ffd5b8063313ce5671461025e57806338d52e0f14610278578063402d267d146102b2575f5ffd5b8063095ea7b3116101a4578063095ea7b31461020d5780630a28a4771461023057806318160ddd1461024357806323b872dd1461024b575f5ffd5b806301e1d114146101ca57806306fdde03146101e557806307a2d13a146101fa575b5f5ffd5b6101d261042e565b6040519081526020015b60405180910390f35b6101ed6105bc565b6040516101dc919061139c565b6101d26102083660046113d1565b61064c565b61022061021b366004611403565b61065d565b60405190151581526020016101dc565b6101d261023e3660046113d1565b610674565b6002546101d2565b61022061025936600461142b565b610680565b6102666106a5565b60405160ff90911681526020016101dc565b7f00000000000000000000000000000000000000000000000000000000000000005b6040516001600160a01b0390911681526020016101dc565b6101d26102c0366004611465565b505f1990565b6101d26102d436600461147e565b6106b3565b6101d26102e7366004611465565b6001600160a01b03165f9081526020819052604090205490565b6103096106de565b005b6005546001600160a01b031661029a565b6101d261032a36600461147e565b6106f1565b6101ed610704565b61029a7f000000000000000000000000000000000000000000000000000000000000000081565b61022061036c366004611403565b610713565b6101d261037f3660046113d1565b610720565b6101d26103923660046114a8565b61072c565b6101d26103a53660046114a8565b610758565b6101d26103b83660046113d1565b61076c565b6101d26103cb366004611465565b610777565b6101d26103de366004611465565b610780565b6101d26103f13660046114e1565b6001600160a01b039182165f90815260016020908152604080832093909416825291909152205490565b610309610429366004611465565b61079d565b5f807f00000000000000000000000000000000000000000000000000000000000000006040516370a0823160e01b81523060048201526001600160a01b0391909116906370a0823190602401602060405180830381865afa158015610495573d5f5f3e3d5ffd5b505050506040513d601f19601f820116820180604052508101906104b99190611509565b6040516370a0823160e01b81523060048201529091505f906001600160a01b037f000000000000000000000000000000000000000000000000000000000000000016906307a2d13a9082906370a0823190602401602060405180830381865afa158015610528573d5f5f3e3d5ffd5b505050506040513d601f19601f8201168201806040525081019061054c9190611509565b6040518263ffffffff1660e01b815260040161056a91815260200190565b602060405180830381865afa158015610585573d5f5f3e3d5ffd5b505050506040513d601f19601f820116820180604052508101906105a99190611509565b90506105b58183611534565b9250505090565b6060600380546105cb90611547565b80601f01602080910402602001604051908101604052809291908181526020018280546105f790611547565b80156106425780601f1061061957610100808354040283529160200191610642565b820191905f5260205f20905b81548152906001019060200180831161062557829003601f168201915b5050505050905090565b5f610657825f6107df565b92915050565b5f3361066a818585610817565b5060019392505050565b5f610657826001610829565b5f3361068d858285610858565b6106988585856108c1565b60019150505b9392505050565b5f6106ae61091e565b905090565b5f6106bc610949565b6106c68383610964565b905061065760015f5160206117135f395f51905f5255565b6106e6610987565b6106ef5f6109b4565b565b5f6106fa610949565b6106c68383610a05565b6060600480546105cb90611547565b5f3361066a8185856108c1565b5f6106578260016107df565b5f610735610949565b610740848484610a20565b905061069e60015f5160206117135f395f51905f5255565b5f610761610949565b610740848484610a76565b5f610657825f610829565b5f610657610208835b6001600160a01b0381165f90815260208190526040812054610657565b6107a5610987565b6001600160a01b0381166107d357604051631e4fbdf760e01b81525f60048201526024015b60405180910390fd5b6107dc816109b4565b50565b5f61069e6107eb61042e565b6107f6906001611534565b6108015f600a611662565b60025461080e9190611534565b85919085610ac3565b6108248383836001610b05565b505050565b5f61069e61083882600a611662565b6002546108459190611534565b61084d61042e565b61080e906001611534565b6001600160a01b038381165f908152600160209081526040808320938616835292905220545f198110156108bb57818110156108ad57828183604051637dc7a0d960e11b81526004016107ca93929190611670565b6108bb84848484035f610b05565b50505050565b6001600160a01b0383166108ea57604051634b637e8f60e11b81525f60048201526024016107ca565b6001600160a01b0382166109135760405163ec442f0560e01b81525f60048201526024016107ca565b610824838383610bd7565b5f6106ae817f0000000000000000000000000000000000000000000000000000000000000000611691565b610951610cea565b60025f5160206117135f395f51905f5255565b5f5f195f6109718561076c565b905061097f33858784610d19565b949350505050565b6005546001600160a01b031633146106ef5760405163118cdaa760e01b81523360048201526024016107ca565b600580546001600160a01b038381166001600160a01b0319831681179093556040519116919082907f8be0079c531659141344cd1fd0a4f28419497f9722a3daafe3b4186f6b6457e0905f90a35050565b5f5f195f610a1285610720565b905061097f33858388610d19565b5f5f610a2b83610777565b905080851115610a5457828582604051633fa733bb60e21b81526004016107ca93929190611670565b5f610a5e86610674565b9050610a6d3386868985610e4e565b95945050505050565b5f5f610a8183610780565b905080851115610aaa57828582604051632e52afbb60e21b81526004016107ca93929190611670565b5f610ab48661064c565b9050610a6d338686848a610e4e565b5f610af0610ad083610f95565b8015610aeb57505f8480610ae657610ae66116aa565b868809115b151590565b610afb868686610fc1565b610a6d9190611534565b6001600160a01b038416610b2e5760405163e602df0560e01b81525f60048201526024016107ca565b6001600160a01b038316610b5757604051634a1406b160e11b81525f60048201526024016107ca565b6001600160a01b038085165f90815260016020908152604080832093871683529290522082905580156108bb57826001600160a01b0316846001600160a01b03167f8c5be1e5ebec7d5bd14f71427d1e84f3dd0314c0f7b2291e5b200ac8c7c3b92584604051610bc991815260200190565b60405180910390a350505050565b6001600160a01b038316610c01578060025f828254610bf69190611534565b90915550610c5e9050565b6001600160a01b0383165f9081526020819052604090205481811015610c405783818360405163391434e360e21b81526004016107ca93929190611670565b6001600160a01b0384165f9081526020819052604090209082900390555b6001600160a01b038216610c7a57600280548290039055610c98565b6001600160a01b0382165f9081526020819052604090208054820190555b816001600160a01b0316836001600160a01b03167fddf252ad1be2c89b69c2b068fc378daa952ba7f163c4a11628f55a4df523b3ef83604051610cdd91815260200190565b60405180910390a3505050565b5f5160206117135f395f51905f52546002036106ef57604051633ee5aeb560e01b815260040160405180910390fd5b610d2584848484611071565b5f7f00000000000000000000000000000000000000000000000000000000000000006040516370a0823160e01b81523060048201526001600160a01b0391909116906370a0823190602401602060405180830381865afa158015610d8b573d5f5f3e3d5ffd5b505050506040513d601f19601f82011682018060405250810190610daf9190611509565b90508015610e4757604051636e553f6560e01b8152600481018290523060248201527f00000000000000000000000000000000000000000000000000000000000000006001600160a01b031690636e553f65906044016020604051808303815f875af1158015610e21573d5f5f3e3d5ffd5b505050506040513d601f19601f82011682018060405250810190610e459190611509565b505b5050505050565b5f7f00000000000000000000000000000000000000000000000000000000000000006040516370a0823160e01b81523060048201526001600160a01b0391909116906370a0823190602401602060405180830381865afa158015610eb4573d5f5f3e3d5ffd5b505050506040513d601f19601f82011682018060405250810190610ed89190611509565b905082811015610f88575f610eed82856116be565b604051632d182be560e21b815260048101829052306024820181905260448201529091507f00000000000000000000000000000000000000000000000000000000000000006001600160a01b03169063b460af94906064016020604051808303815f875af1158015610f61573d5f5f3e3d5ffd5b505050506040513d601f19601f82011682018060405250810190610f859190611509565b50505b610e4586868686866110d3565b5f6002826003811115610faa57610faa6116d1565b610fb491906116e5565b60ff166001149050919050565b5f5f5f610fce8686611172565b91509150815f03610ff257838181610fe857610fe86116aa565b049250505061069e565b81841161100957611009600385150260111861118e565b5f848688095f868103871696879004966002600389028118808a02820302808a02820302808a02820302808a02820302808a02820302808a02909103029181900381900460010185841190960395909502919093039390930492909217029150509392505050565b61107b848361119f565b61108583826111cf565b826001600160a01b0316846001600160a01b03167fdcbc1c05240f31ff3ad067ef1ee35ce4997762752e3a095284754544f4c709d78484604051610bc9929190918252602082015260400190565b826001600160a01b0316856001600160a01b0316146110f7576110f7838683610858565b6111018382611203565b61110b8483611237565b826001600160a01b0316846001600160a01b0316866001600160a01b03167ffbde797d201c681b91056529119e0b02407c7bb96a4a2c75c01fc9667232c8db8585604051611163929190918252602082015260400190565b60405180910390a45050505050565b5f805f1983850993909202808410938190039390930393915050565b634e487b715f52806020526024601cfd5b6111cb7f0000000000000000000000000000000000000000000000000000000000000000833084611262565b5050565b6001600160a01b0382166111f85760405163ec442f0560e01b81525f60048201526024016107ca565b6111cb5f8383610bd7565b6001600160a01b03821661122c57604051634b637e8f60e11b81525f60048201526024016107ca565b6111cb825f83610bd7565b6111cb7f00000000000000000000000000000000000000000000000000000000000000008383611298565b6112708484848460016112cd565b6108bb57604051635274afe760e01b81526001600160a01b03851660048201526024016107ca565b6112a5838383600161133a565b61082457604051635274afe760e01b81526001600160a01b03841660048201526024016107ca565b6040516323b872dd60e01b5f8181526001600160a01b038781166004528616602452604485905291602083606481808c5af1925060015f5114831661132957838315161561131d573d5f823e3d81fd5b5f883b113d1516831692505b604052505f60605295945050505050565b60405163a9059cbb60e01b5f8181526001600160a01b038616600452602485905291602083604481808b5af1925060015f51148316611390578383151615611384573d5f823e3d81fd5b5f873b113d1516831692505b60405250949350505050565b602081525f82518060208401528060208501604085015e5f604082850101526040601f19601f83011684010191505092915050565b5f602082840312156113e1575f5ffd5b5035919050565b80356001600160a01b03811681146113fe575f5ffd5b919050565b5f5f60408385031215611414575f5ffd5b61141d836113e8565b946020939093013593505050565b5f5f5f6060848603121561143d575f5ffd5b611446846113e8565b9250611454602085016113e8565b929592945050506040919091013590565b5f60208284031215611475575f5ffd5b61069e826113e8565b5f5f6040838503121561148f575f5ffd5b8235915061149f602084016113e8565b90509250929050565b5f5f5f606084860312156114ba575f5ffd5b833592506114ca602085016113e8565b91506114d8604085016113e8565b90509250925092565b5f5f604083850312156114f2575f5ffd5b6114fb836113e8565b915061149f602084016113e8565b5f60208284031215611519575f5ffd5b5051919050565b634e487b7160e01b5f52601160045260245ffd5b8082018082111561065757610657611520565b600181811c9082168061155b57607f821691505b60208210810361157957634e487b7160e01b5f52602260045260245ffd5b50919050565b6001815b60018411156115ba5780850481111561159e5761159e611520565b60018416156115ac57908102905b60019390931c928002611583565b935093915050565b5f826115d057506001610657565b816115dc57505f610657565b81600181146115f257600281146115fc57611618565b6001915050610657565b60ff84111561160d5761160d611520565b50506001821b610657565b5060208310610133831016604e8410600b841016171561163b575081810a610657565b6116475f19848461157f565b805f190482111561165a5761165a611520565b029392505050565b5f61069e60ff8416836115c2565b6001600160a01b039390931683526020830191909152604082015260600190565b60ff818116838216019081111561065757610657611520565b634e487b7160e01b5f52601260045260245ffd5b8181038181111561065757610657611520565b634e487b7160e01b5f52602160045260245ffd5b5f60ff83168061170357634e487b7160e01b5f52601260045260245ffd5b8060ff8416069150509291505056fe9b779b17422d0df92223018b32b4d1fa46e071723d6817e2486d003becc55f00a2646970667358221220342cd7b2f789879fad62d813797dfdf55a13c867889f0cad55392cd4a097cb5164736f6c634300081e0033",
  "linkReferences": {},
  "deployedLinkReferences": {},
  "immutableReferences": {
    "1164": [
      {
        "length": 32,
        "start": 634
      },
      {
        "length": 32,
        "start": 1074
      },
      {
        "length": 32,
        "start": 3368
      },
      {
        "length": 32,
        "start": 3665
      },
      {
        "length": 32,
        "start": 4516
      },
      {
        "length": 32,
        "start": 4668
      }
    ],
    "1166": [
      {
        "length": 32,
        "start": 2341
      }
    ],
    "6644": [
      {
        "length": 32,
        "start": 828
      },
      {
        "length": 32,
        "start": 1243
      },
      {
        "length": 32,
        "start": 3539
      },
      {
        "length": 32,
        "start": 3859
      }
    ]
  },
  "inputSourceName": "project/contracts/VaultT.sol",
  "buildInfoId": "solc-0_8_30-de34d057eb65632d2285e29f490caf9d53d71331"
}