{
  "_format": "hh3-artifact-1",
  "contractName": "MockUSDC",
  "sourceName": "contracts/MockUSDC.sol",
  "abi": [
    {
      "inputs": [
        {
          "internalType": "address",
          "name": "initialOwner",
          "type": "address"
        }
      ],
      "stateMutability": "nonpayable",
      "type": "constructor"
    },
    {
      "inputs": [
        {
          "internalType": "address",
          "name": "spender",
          "type": "address"
        },
        {
          "internalType": "uint256",
          "name": "allowance",
          "type": "uint256"
        },
        {
          "internalType": "uint256",
          "name": "needed",
          "type": "uint256"
        }
      ],
      "name": "ERC20InsufficientAllowance",
      "type": "error"
    },
    {
      "inputs": [
        {
          "internalType": "address",
          "name": "sender",
          "type": "address"
        },
        {
          "internalType": "uint256",
          "name": "balance",
          "type": "uint256"
        },
        {
          "internalType": "uint256",
          "name": "needed",
          "type": "uint256"
        }
      ],
      "name": "ERC20InsufficientBalance",
      "type": "error"
    },
    {
      "inputs": [
        {
          "internalType": "address",
          "name": "approver",
          "type": "address"
        }
      ],
      "name": "ERC20InvalidApprover",
      "type": "error"
    },
    {
      "inputs": [
        {
          "internalType": "address",
          "name": "receiver",
          "type": "address"
        }
      ],
      "name": "ERC20InvalidReceiver",
      "type": "error"
    },
    {
      "inputs": [
        {
          "internalType": "address",
          "name": "sender",
          "type": "address"
        }
      ],
      "name": "ERC20InvalidSender",
      "type": "error"
    },
    {
      "inputs": [
        {
          "internalType": "address",
          "name": "spender",
          "type": "address"
        }
      ],
      "name": "ERC20InvalidSpender",
      "type": "error"
    },
    {
      "inputs": [
        {
          "internalType": "address",
          "name": "caller",
          "type": "address"
        }
      ],
      "name": "NotMinterOrOwner",
      "type": "error"
    },
    {
      "inputs": [
        {
          "internalType": "address",
          "name": "owner",
          "type": "address"
        }
      ],
      "name": "OwnableInvalidOwner",
      "type": "error"
    },
    {
      "inputs": [
        {
          "internalType": "address",
          "name": "account",
          "type": "address"
        }
      ],
      "name": "OwnableUnauthorizedAccount",
      "type": "error"
    },
    {
      "inputs": [],
      "name": "ZeroAddress",
      "type": "error"
    },
    {
      "anonymous": false,
      "inputs": [
        {
          "indexed": true,
          "internalType": "address",
          "name": "owner",
          "type": "address"
        },
        {
          "indexed": true,
          "internalType": "address",
          "name": "spender",
          "type": "address"
        },
        {
          "indexed": false,
          "internalType": "uint256",
          "name": "value",
          "type": "uint256"
        }
      ],
      "name": "Approval",
      "type": "event"
    },
    {
      "anonymous": false,
      "inputs": [
        {
          "indexed": true,
          "internalType": "address",
          "name": "account",
          "type": "address"
        },
        {
          "indexed": false,
          "internalType": "bool",
          "name": "status",
          "type": "bool"
        }
      ],
      "name": "MinterUpdated",
      "type": "event"
    },
    {
      "anonymous": false,
      "inputs": [
        {
          "indexed": true,
          "internalType": "address",
          "name": "previousOwner",
          "type": "address"
        },
        {
          "indexed": true,
          "internalType": "address",
          "name": "newOwner",
          "type": "address"
        }
      ],
      "name": "OwnershipTransferred",
      "type": "event"
    },
    {
      "anonymous": false,
      "inputs": [
        {
          "indexed": true,
          "internalType": "address",
          "name": "from",
          "type": "address"
        },
        {
          "indexed": true,
          "internalType": "address",
          "name": "to",
          "type": "address"
        },
        {
          "indexed": false,
          "internalType": "uint256",
          "name": "value",
          "type": "uint256"
        }
      ],
      "name": "Transfer",
      "type": "event"
    },
    {
      "inputs": [
        {
          "internalType": "address",
          "name": "owner",
          "type": "address"
        },
        {
          "internalType": "address",
          "name": "spender",
          "type": "address"
        }
      ],
      "name": "allowance",
      "outputs": [
        {
          "internalType": "uint256",
          "name": "",
          "type": "uint256"
        }
      ],
      "stateMutability": "view",
      "type": "function"
    },
    {
      "inputs": [
        {
          "internalType": "address",
          "name": "spender",
          "type": "address"
        },
        {
          "internalType": "uint256",
          "name": "value",
          "type": "uint256"
        }
      ],
      "name": "approve",
      "outputs": [
        {
          "internalType": "bool",
          "name": "",
          "type": "bool"
        }
      ],
      "stateMutability": "nonpayable",
      "type": "function"
    },
    {
      "inputs": [
        {
          "internalType": "address",
          "name": "account",
          "type": "address"
        }
      ],
      "name": "balanceOf",
      "outputs": [
        {
          "internalType": "uint256",
          "name": "",
          "type": "uint256"
        }
      ],
      "stateMutability": "view",
      "type": "function"
    },
    {
      "inputs": [],
      "name": "decimals",
      "outputs": [
        {
          "internalType": "uint8",
          "name": "",
          "type": "uint8"
        }
      ],
      "stateMutability": "pure",
      "type": "function"
    },
    {
      "inputs": [
        {
          "internalType": "address",
          "name": "to",
          "type": "address"
        },
        {
          "internalType": "uint256",
          "name": "amount",
          "type": "uint256"
        }
      ],
      "name": "mint",
      "outputs": [],
      "stateMutability": "nonpayable",
      "type": "function"
    },
    {
      "inputs": [
        {
          "internalType": "address",
          "name": "",
          "type": "address"
        }
      ],
      "name": "minters",
      "outputs": [
        {
          "internalType": "bool",
          "name": "",
          "type": "bool"
        }
      ],
      "stateMutability": "view",
      "type": "function"
    },
    {
      "inputs": [],
      "name": "name",
      "outputs": [
        {
          "internalType": "string",
          "name": "",
          "type": "string"
        }
      ],
      "stateMutability": "view",
      "type": "function"
    },
    {
      "inputs": [],
      "name": "owner",
      "outputs": [
        {
          "internalType": "address",
          "name": "",
          "type": "address"
        }
      ],
      "stateMutability": "view",
      "type": "function"
    },
    {
      "inputs": [],
      "name": "renounceOwnership",
      "outputs": [],
      "stateMutability": "nonpayable",
      "type": "function"
    },
    {
      "inputs": [
        {
          "internalType": "address",
          "name": "account",
          "type": "address"
        },
        {
          "internalType": "bool",
          "name": "status",
          "type": "bool"
        }
      ],
      "name": "setMinter",
      "outputs": [],
      "stateMutability": "nonpayable",
      "type": "function"
    },
    {
      "inputs": [],
      "name": "symbol",
      "outputs": [
        {
          "internalType": "string",
          "name": "",
          "type": "string"
        }
      ],
      "stateMutability": "view",
      "type": "function"
    },
    {
      "inputs": [],
      "name": "totalSupply",
      "outputs": [
        {
          "internalType": "uint256",
          "name": "",
          "type": "uint256"
        }
      ],
      "stateMutability": "view",
      "type": "function"
    },
    {
      "inputs": [
        {
          "internalType": "address",
          "name": "to",
          "type": "address"
        },
        {
          "internalType": "uint256",
          "name": "value",
          "type": "uint256"
        }
      ],
      "name": "transfer",
      "outputs": [
        {
          "internalType": "bool",
          "name": "",
          "type": "bool"
        }
      ],
      "stateMutability": "nonpayable",
      "type": "function"
    },
    {
      "inputs": [
        {
          "internalType": "address",
          "name": "from",
          "type": "address"
        },
        {
          "internalType": "address",
          "name": "to",
          "type": "address"
        },
        {
          "internalType": "uint256",
          "name": "value",
          "type": "uint256"
        }
      ],
      "name": "transferFrom",
      "outputs": [
        {
          "internalType": "bool",
          "name": "",
          "type": "bool"
        }
      ],
      "stateMutability": "nonpayable",
      "type": "function"
    },
    {
      "inputs": [
        {
          "internalType": "address",
          "name": "newOwner",
          "type": "address"
        }
      ],
      "name": "transferOwnership",
      "outputs": [],
      "stateMutability": "nonpayable",
      "type": "function"
    }
  ],
  "bytecode": "0x608060405234801561000f575f5ffd5b50604051610c90380380610c9083398101604081905261002e91610120565b806040518060400160405280600d81526020016c26b7b1b5902aa9a21021b7b4b760991b815250604051806040016040528060058152602001646d5553444360d81b815250816003908161008291906101e5565b50600461008f82826101e5565b5050506001600160a01b0381166100bf57604051631e4fbdf760e01b81525f600482015260240160405180910390fd5b6100c8816100cf565b505061029f565b600580546001600160a01b038381166001600160a01b0319831681179093556040519116919082907f8be0079c531659141344cd1fd0a4f28419497f9722a3daafe3b4186f6b6457e0905f90a35050565b5f60208284031215610130575f5ffd5b81516001600160a01b0381168114610146575f5ffd5b9392505050565b634e487b7160e01b5f52604160045260245ffd5b600181811c9082168061017557607f821691505b60208210810361019357634e487b7160e01b5f52602260045260245ffd5b50919050565b601f8211156101e057805f5260205f20601f840160051c810160208510156101be5750805b601f840160051c820191505b818110156101dd575f81556001016101ca565b50505b505050565b81516001600160401b038111156101fe576101fe61014d565b6102128161020c8454610161565b84610199565b6020601f821160018114610244575f831561022d5750848201515b5f19600385901b1c1916600184901b1784556101dd565b5f84815260208120601f198516915b828110156102735787850151825560209485019460019092019101610253565b508482101561029057868401515f19600387901b60f8161c191681555b50505050600190811b01905550565b6109e4806102ac5f395ff3fe608060405234801561000f575f5ffd5b50600436106100f0575f3560e01c8063715018a611610093578063cf456ae711610063578063cf456ae7146101e4578063dd62ed3e146101f7578063f2fde38b1461022f578063f46eccc414610242575f5ffd5b8063715018a6146101a65780638da5cb5b146101ae57806395d89b41146101c9578063a9059cbb146101d1575f5ffd5b806323b872dd116100ce57806323b872dd14610147578063313ce5671461015a57806340c10f191461016957806370a082311461017e575f5ffd5b806306fdde03146100f4578063095ea7b31461011257806318160ddd14610135575b5f5ffd5b6100fc610264565b604051610109919061081b565b60405180910390f35b61012561012036600461086b565b6102f4565b6040519015158152602001610109565b6002545b604051908152602001610109565b610125610155366004610893565b61030d565b60405160068152602001610109565b61017c61017736600461086b565b610330565b005b61013961018c3660046108cd565b6001600160a01b03165f9081526020819052604090205490565b61017c61038d565b6005546040516001600160a01b039091168152602001610109565b6100fc6103a0565b6101256101df36600461086b565b6103af565b61017c6101f23660046108ed565b6103bc565b610139610205366004610926565b6001600160a01b039182165f90815260016020908152604080832093909416825291909152205490565b61017c61023d3660046108cd565b610449565b6101256102503660046108cd565b60066020525f908152604090205460ff1681565b60606003805461027390610957565b80601f016020809104026020016040519081016040528092919081815260200182805461029f90610957565b80156102ea5780601f106102c1576101008083540402835291602001916102ea565b820191905f5260205f20905b8154815290600101906020018083116102cd57829003601f168201915b5050505050905090565b5f33610301818585610486565b60019150505b92915050565b5f3361031a858285610498565b610325858585610514565b506001949350505050565b6005546001600160a01b0316331480159061035a5750335f9081526006602052604090205460ff16155b1561037f57604051632eda952760e11b81523360048201526024015b60405180910390fd5b6103898282610571565b5050565b6103956105a5565b61039e5f6105d2565b565b60606004805461027390610957565b5f33610301818585610514565b6103c46105a5565b6001600160a01b0382166103eb5760405163d92e233d60e01b815260040160405180910390fd5b6001600160a01b0382165f81815260066020908152604091829020805460ff191685151590811790915591519182527fb21afb9ce9be0a676f8f317ff0ca072fb89a4f8ce2d1b6fe80f8755c14f1cb19910160405180910390a25050565b6104516105a5565b6001600160a01b03811661047a57604051631e4fbdf760e01b81525f6004820152602401610376565b610483816105d2565b50565b6104938383836001610623565b505050565b6001600160a01b038381165f908152600160209081526040808320938616835292905220545f1981101561050e578181101561050057604051637dc7a0d960e11b81526001600160a01b03841660048201526024810182905260448101839052606401610376565b61050e84848484035f610623565b50505050565b6001600160a01b03831661053d57604051634b637e8f60e11b81525f6004820152602401610376565b6001600160a01b0382166105665760405163ec442f0560e01b81525f6004820152602401610376565b6104938383836106f5565b6001600160a01b03821661059a5760405163ec442f0560e01b81525f6004820152602401610376565b6103895f83836106f5565b6005546001600160a01b0316331461039e5760405163118cdaa760e01b8152336004820152602401610376565b600580546001600160a01b038381166001600160a01b0319831681179093556040519116919082907f8be0079c531659141344cd1fd0a4f28419497f9722a3daafe3b4186f6b6457e0905f90a35050565b6001600160a01b03841661064c5760405163e602df0560e01b81525f6004820152602401610376565b6001600160a01b03831661067557604051634a1406b160e11b81525f6004820152602401610376565b6001600160a01b038085165f908152600160209081526040808320938716835292905220829055801561050e57826001600160a01b0316846001600160a01b03167f8c5be1e5ebec7d5bd14f71427d1e84f3dd0314c0f7b2291e5b200ac8c7c3b925846040516106e791815260200190565b60405180910390a350505050565b6001600160a01b03831661071f578060025f828254610714919061098f565b9091555061078f9050565b6001600160a01b0383165f90815260208190526040902054818110156107715760405163391434e360e21b81526001600160a01b03851660048201526024810182905260448101839052606401610376565b6001600160a01b0384165f9081526020819052604090209082900390555b6001600160a01b0382166107ab576002805482900390556107c9565b6001600160a01b0382165f9081526020819052604090208054820190555b816001600160a01b0316836001600160a01b03167fddf252ad1be2c89b69c2b068fc378daa952ba7f163c4a11628f55a4df523b3ef8360405161080e91815260200190565b60405180910390a3505050565b602081525f82518060208401528060208501604085015e5f604082850101526040601f19601f83011684010191505092915050565b80356001600160a01b0381168114610866575f5ffd5b919050565b5f5f6040838503121561087c575f5ffd5b61088583610850565b946020939093013593505050565b5f5f5f606084860312156108a5575f5ffd5b6108ae84610850565b92506108bc60208501610850565b929592945050506040919091013590565b5f602082840312156108dd575f5ffd5b6108e682610850565b9392505050565b5f5f604083850312156108fe575f5ffd5b61090783610850565b91506020830135801515811461091b575f5ffd5b809150509250929050565b5f5f60408385031215610937575f5ffd5b61094083610850565b915061094e60208401610850565b90509250929050565b600181811c9082168061096b57607f821691505b60208210810361098957634e487b7160e01b5f52602260045260245ffd5b50919050565b8082018082111561030757634e487b7160e01b5f52601160045260245ffdfea2646970667358221220e0e4a97e5613190daf19960b2069fcc3c6b491423b843b08aa73f1e60f10637a64736f6c634300081e0033",
  "linkReferences": {},
  "deployedLinkReferences": {},
  "immutableReferences": {},
  "inputSourceName": "project/contracts/MockUSDC.sol",
  "buildInfoId": "solc-0_8_30-4f4791baa5bb398dc4a46b312f48200d46408a65"
}