{
  "_format": "hh3-artifact-1",
  "contractName": "VaultT",
  "sourceName": "contracts/VaultT.sol",
  "abi": [
    {
      "inputs": [
        {
          "internalType": "contract IERC20",
          "name": "asset_",
          "type": "address"
        },
        {
          "internalType": "contract IERC4626",
          "name": "strategy_",
          "type": "address"
        },
        {
          "internalType": "address",
          "name": "owner_",
          "type": "address"
        }
      ],
      "stateMutability": "nonpayable",
      "type": "constructor"
    },
    {
      "inputs": [
        {
          "internalType": "address",
          "name": "spender",
          "type": "address"
        },
        {
          "internalType": "uint256",
          "name": "allowance",
          "type": "uint256"
        },
        {
          "internalType": "uint256",
          "name": "needed",
          "type": "uint256"
        }
      ],
      "name": "ERC20InsufficientAllowance",
      "type": "error"
    },
    {
      "inputs": [
        {
          "internalType": "address",
          "name": "sender",
          "type": "address"
        },
        {
          "internalType": "uint256",
          "name": "balance",
          "type": "uint256"
        },
        {
          "internalType": "uint256",
          "name": "needed",
          "type": "uint256"
        }
      ],
      "name": "ERC20InsufficientBalance",
      "type": "error"
    },
    {
      "inputs": [
        {
          "internalType": "address",
          "name": "approver",
          "type": "address"
        }
      ],
      "name": "ERC20InvalidApprover",
      "type": "error"
    },
    {
      "inputs": [
        {
          "internalType": "address",
          "name": "receiver",
          "type": "address"
        }
      ],
      "name": "ERC20InvalidReceiver",
      "type": "error"
    },
    {
      "inputs": [
        {
          "internalType": "address",
          "name": "sender",
          "type": "address"
        }
      ],
      "name": "ERC20InvalidSender",
      "type": "error"
    },
    {
      "inputs": [
        {
          "internalType": "address",
          "name": "spender",
          "type": "address"
        }
      ],
      "name": "ERC20InvalidSpender",
      "type": "error"
    },
    {
      "inputs": [
        {
          "internalType": "address",
          "name": "receiver",
          "type": "address"
        },
        {
          "internalType": "uint256",
          "name": "assets",
          "type": "uint256"
        },
        {
          "internalType": "uint256",
          "name": "max",
          "type": "uint256"
        }
      ],
      "name": "ERC4626ExceededMaxDeposit",
      "type": "error"
    },
    {
      "inputs": [
        {
          "internalType": "address",
          "name": "receiver",
          "type": "address"
        },
        {
          "internalType": "uint256",
          "name": "shares",
          "type": "uint256"
        },
        {
          "internalType": "uint256",
          "name": "max",
          "type": "uint256"
        }
      ],
      "name": "ERC4626ExceededMaxMint",
      "type": "error"
    },
    {
      "inputs": [
        {
          "internalType": "address",
          "name": "owner",
          "type": "address"
        },
        {
          "internalType": "uint256",
          "name": "shares",
          "type": "uint256"
        },
        {
          "internalType": "uint256",
          "name": "max",
          "type": "uint256"
        }
      ],
      "name": "ERC4626ExceededMaxRedeem",
      "type": "error"
    },
    {
      "inputs": [
        {
          "internalType": "address",
          "name": "owner",
          "type": "address"
        },
        {
          "internalType": "uint256",
          "name": "assets",
          "type": "uint256"
        },
        {
          "internalType": "uint256",
          "name": "max",
          "type": "uint256"
        }
      ],
      "name": "ERC4626ExceededMaxWithdraw",
      "type": "error"
    },
    {
      "inputs": [
        {
          "internalType": "address",
          "name": "owner",
          "type": "address"
        }
      ],
      "name": "OwnableInvalidOwner",
      "type": "error"
    },
    {
      "inputs": [
        {
          "internalType": "address",
          "name": "account",
          "type": "address"
        }
      ],
      "name": "OwnableUnauthorizedAccount",
      "type": "error"
    },
    {
      "inputs": [
        {
          "internalType": "address",
          "name": "token",
          "type": "address"
        }
      ],
      "name": "SafeERC20FailedOperation",
      "type": "error"
    },
    {
      "inputs": [],
      "name": "StrategyZeroAddress",
      "type": "error"
    },
    {
      "anonymous": false,
      "inputs": [
        {
          "indexed": true,
          "internalType": "address",
          "name": "owner",
          "type": "address"
        },
        {
          "indexed": true,
          "internalType": "address",
          "name": "spender",
          "type": "address"
        },
        {
          "indexed": false,
          "internalType": "uint256",
          "name": "value",
          "type": "uint256"
        }
      ],
      "name": "Approval",
      "type": "event"
    },
    {
      "anonymous": false,
      "inputs": [
        {
          "indexed": true,
          "internalType": "address",
          "name": "sender",
          "type": "address"
        },
        {
          "indexed": true,
          "internalType": "address",
          "name": "owner",
          "type": "address"
        },
        {
          "indexed": false,
          "internalType": "uint256",
          "name": "assets",
          "type": "uint256"
        },
        {
          "indexed": false,
          "internalType": "uint256",
          "name": "shares",
          "type": "uint256"
        }
      ],
      "name": "Deposit",
      "type": "event"
    },
    {
      "anonymous": false,
      "inputs": [
        {
          "indexed": true,
          "internalType": "address",
          "name": "previousOwner",
          "type": "address"
        },
        {
          "indexed": true,
          "internalType": "address",
          "name": "newOwner",
          "type": "address"
        }
      ],
      "name": "OwnershipTransferred",
      "type": "event"
    },
    {
      "anonymous": false,
      "inputs": [
        {
          "indexed": true,
          "internalType": "address",
          "name": "from",
          "type": "address"
        },
        {
          "indexed": true,
          "internalType": "address",
          "name": "to",
          "type": "address"
        },
        {
          "indexed": false,
          "internalType": "uint256",
          "name": "value",
          "type": "uint256"
        }
      ],
      "name": "Transfer",
      "type": "event"
    },
    {
      "anonymous": false,
      "inputs": [
        {
          "indexed": true,
          "internalType": "address",
          "name": "sender",
          "type": "address"
        },
        {
          "indexed": true,
          "internalType": "address",
          "name": "receiver",
          "type": "address"
        },
        {
          "indexed": true,
          "internalType": "address",
          "name": "owner",
          "type": "address"
        },
        {
          "indexed": false,
          "internalType": "uint256",
          "name": "assets",
          "type": "uint256"
        },
        {
          "indexed": false,
          "internalType": "uint256",
          "name": "shares",
          "type": "uint256"
        }
      ],
      "name": "Withdraw",
      "type": "event"
    },
    {
      "inputs": [
        {
          "internalType": "address",
          "name": "owner",
          "type": "address"
        },
        {
          "internalType": "address",
          "name": "spender",
          "type": "address"
        }
      ],
      "name": "allowance",
      "outputs": [
        {
          "internalType": "uint256",
          "name": "",
          "type": "uint256"
        }
      ],
      "stateMutability": "view",
      "type": "function"
    },
    {
      "inputs": [
        {
          "internalType": "address",
          "name": "spender",
          "type": "address"
        },
        {
          "internalType": "uint256",
          "name": "value",
          "type": "uint256"
        }
      ],
      "name": "approve",
      "outputs": [
        {
          "internalType": "bool",
          "name": "",
          "type": "bool"
        }
      ],
      "stateMutability": "nonpayable",
      "type": "function"
    },
    {
      "inputs": [],
      "name": "asset",
      "outputs": [
        {
          "internalType": "address",
          "name": "",
          "type": "address"
        }
      ],
      "stateMutability": "view",
      "type": "function"
    },
    {
      "inputs": [
        {
          "internalType": "address",
          "name": "account",
          "type": "address"
        }
      ],
      "name": "balanceOf",
      "outputs": [
        {
          "internalType": "uint256",
          "name": "",
          "type": "uint256"
        }
      ],
      "stateMutability": "view",
      "type": "function"
    },
    {
      "inputs": [
        {
          "internalType": "uint256",
          "name": "shares",
          "type": "uint256"
        }
      ],
      "name": "convertToAssets",
      "outputs": [
        {
          "internalType": "uint256",
          "name": "",
          "type": "uint256"
        }
      ],
      "stateMutability": "view",
      "type": "function"
    },
    {
      "inputs": [
        {
          "internalType": "uint256",
          "name": "assets",
          "type": "uint256"
        }
      ],
      "name": "convertToShares",
      "outputs": [
        {
          "internalType": "uint256",
          "name": "",
          "type": "uint256"
        }
      ],
      "stateMutability": "view",
      "type": "function"
    },
    {
      "inputs": [],
      "name": "decimals",
      "outputs": [
        {
          "internalType": "uint8",
          "name": "",
          "type": "uint8"
        }
      ],
      "stateMutability": "view",
      "type": "function"
    },
    {
      "inputs": [
        {
          "internalType": "uint256",
          "name": "assets",
          "type": "uint256"
        },
        {
          "internalType": "address",
          "name": "receiver",
          "type": "address"
        }
      ],
      "name": "deposit",
      "outputs": [
        {
          "internalType": "uint256",
          "name": "",
          "type": "uint256"
        }
      ],
      "stateMutability": "nonpayable",
      "type": "function"
    },
    {
      "inputs": [
        {
          "internalType": "address",
          "name": "",
          "type": "address"
        }
      ],
      "name": "maxDeposit",
      "outputs": [
        {
          "internalType": "uint256",
          "name": "",
          "type": "uint256"
        }
      ],
      "stateMutability": "view",
      "type": "function"
    },
    {
      "inputs": [
        {
          "internalType": "address",
          "name": "",
          "type": "address"
        }
      ],
      "name": "maxMint",
      "outputs": [
        {
          "internalType": "uint256",
          "name": "",
          "type": "uint256"
        }
      ],
      "stateMutability": "view",
      "type": "function"
    },
    {
      "inputs": [
        {
          "internalType": "address",
          "name": "owner",
          "type": "address"
        }
      ],
      "name": "maxRedeem",
      "outputs": [
        {
          "internalType": "uint256",
          "name": "",
          "type": "uint256"
        }
      ],
      "stateMutability": "view",
      "type": "function"
    },
    {
      "inputs": [
        {
          "internalType": "address",
          "name": "owner",
          "type": "address"
        }
      ],
      "name": "maxWithdraw",
      "outputs": [
        {
          "internalType": "uint256",
          "name": "",
          "type": "uint256"
        }
      ],
      "stateMutability": "view",
      "type": "function"
    },
    {
      "inputs": [
        {
          "internalType": "uint256",
          "name": "shares",
          "type": "uint256"
        },
        {
          "internalType": "address",
          "name": "receiver",
          "type": "address"
        }
      ],
      "name": "mint",
      "outputs": [
        {
          "internalType": "uint256",
          "name": "",
          "type": "uint256"
        }
      ],
      "stateMutability": "nonpayable",
      "type": "function"
    },
    {
      "inputs": [],
      "name": "name",
      "outputs": [
        {
          "internalType": "string",
          "name": "",
          "type": "string"
        }
      ],
      "stateMutability": "view",
      "type": "function"
    },
    {
      "inputs": [],
      "name": "owner",
      "outputs": [
        {
          "internalType": "address",
          "name": "",
          "type": "address"
        }
      ],
      "stateMutability": "view",
      "type": "function"
    },
    {
      "inputs": [
        {
          "internalType": "uint256",
          "name": "assets",
          "type": "uint256"
        }
      ],
      "name": "previewDeposit",
      "outputs": [
        {
          "internalType": "uint256",
          "name": "",
          "type": "uint256"
        }
      ],
      "stateMutability": "view",
      "type": "function"
    },
    {
      "inputs": [
        {
          "internalType": "uint256",
          "name": "shares",
          "type": "uint256"
        }
      ],
      "name": "previewMint",
      "outputs": [
        {
          "internalType": "uint256",
          "name": "",
          "type": "uint256"
        }
      ],
      "stateMutability": "view",
      "type": "function"
    },
    {
      "inputs": [
        {
          "internalType": "uint256",
          "name": "shares",
          "type": "uint256"
        }
      ],
      "name": "previewRedeem",
      "outputs": [
        {
          "internalType": "uint256",
          "name": "",
          "type": "uint256"
        }
      ],
      "stateMutability": "view",
      "type": "function"
    },
    {
      "inputs": [
        {
          "internalType": "uint256",
          "name": "assets",
          "type": "uint256"
        }
      ],
      "name": "previewWithdraw",
      "outputs": [
        {
          "internalType": "uint256",
          "name": "",
          "type": "uint256"
        }
      ],
      "stateMutability": "view",
      "type": "function"
    },
    {
      "inputs": [
        {
          "internalType": "uint256",
          "name": "shares",
          "type": "uint256"
        },
        {
          "internalType": "address",
          "name": "receiver",
          "type": "address"
        },
        {
          "internalType": "address",
          "name": "owner",
          "type": "address"
        }
      ],
      "name": "redeem",
      "outputs": [
        {
          "internalType": "uint256",
          "name": "",
          "type": "uint256"
        }
      ],
      "stateMutability": "nonpayable",
      "type": "function"
    },
    {
      "inputs": [],
      "name": "renounceOwnership",
      "outputs": [],
      "stateMutability": "nonpayable",
      "type": "function"
    },
    {
      "inputs": [],
      "name": "strategy",
      "outputs": [
        {
          "internalType": "contract IERC4626",
          "name": "",
          "type": "address"
        }
      ],
      "stateMutability": "view",
      "type": "function"
    },
    {
      "inputs": [],
      "name": "symbol",
      "outputs": [
        {
          "internalType": "string",
          "name": "",
          "type": "string"
        }
      ],
      "stateMutability": "view",
      "type": "function"
    },
    {
      "inputs": [],
      "name": "totalAssets",
      "outputs": [
        {
          "internalType": "uint256",
          "name": "",
          "type": "uint256"
        }
      ],
      "stateMutability": "view",
      "type": "function"
    },
    {
      "inputs": [],
      "name": "totalSupply",
      "outputs": [
        {
          "internalType": "uint256",
          "name": "",
          "type": "uint256"
        }
      ],
      "stateMutability": "view",
      "type": "function"
    },
    {
      "inputs": [
        {
          "internalType": "address",
          "name": "to",
          "type": "address"
        },
        {
          "internalType": "uint256",
          "name": "value",
          "type": "uint256"
        }
      ],
      "name": "transfer",
      "outputs": [
        {
          "internalType": "bool",
          "name": "",
          "type": "bool"
        }
      ],
      "stateMutability": "nonpayable",
      "type": "function"
    },
    {
      "inputs": [
        {
          "internalType": "address",
          "name": "from",
          "type": "address"
        },
        {
          "internalType": "address",
          "name": "to",
          "type": "address"
        },
        {
          "internalType": "uint256",
          "name": "value",
          "type": "uint256"
        }
      ],
      "name": "transferFrom",
      "outputs": [
        {
          "internalType": "bool",
          "name": "",
          "type": "bool"
        }
      ],
      "stateMutability": "nonpayable",
      "type": "function"
    },
    {
      "inputs": [
        {
          "internalType": "address",
          "name": "newOwner",
          "type": "address"
        }
      ],
      "name": "transferOwnership",
      "outputs": [],
      "stateMutability": "nonpayable",
      "type": "function"
    },
    {
      "inputs": [
        {
          "internalType": "uint256",
          "name": "assets",
          "type": "uint256"
        },
        {
          "internalType": "address",
          "name": "receiver",
          "type": "address"
        },
        {
          "internalType": "address",
          "name": "owner",
          "type": "address"
        }
      ],
      "name": "withdraw",
      "outputs": [
        {
          "internalType": "uint256",
          "name": "",
          "type": "uint256"
        }
      ],
      "stateMutability": "nonpayable",
      "type": "function"
    }
  ],
  "bytecode": "0x60e060405234801561000f575f5ffd5b50604051611bb3380380611bb383398101604081905261002e916102cc565b80836040518060400160405280601481526020017f4f55434855492d54205661756c742053686172650000000000000000000000008152506040518060400160405280600381526020016227aa2b60e91b815250816003908161009191906103ae565b50600461009e82826103ae565b5050505f5f6100b2836101b260201b60201c565b91509150816100c25760126100c4565b805b60ff1660a05250506001600160a01b0390811660805281166100ff57604051631e4fbdf760e01b81525f600482015260240160405180910390fd5b61010881610243565b506001600160a01b038216610130576040516384a910d360e01b815260040160405180910390fd5b6001600160a01b0382811660c081905260405163095ea7b360e01b815260048101919091525f1960248201529084169063095ea7b3906044016020604051808303815f875af1158015610185573d5f5f3e3d5ffd5b505050506040513d601f19601f820116820180604052508101906101a99190610468565b5050505061048e565b5f80806101be60405190565b6040805160048152602481019091526020810180516001600160e01b0390811663313ce56760e01b179091529192505f9182916101fe9188919061029416565b50909250905061020d83604052565b81801561021b575060203d10155b8015610228575060ff8111155b610233575f5f610237565b6001815b94509450505050915091565b600580546001600160a01b038381166001600160a01b0319831681179093556040519116919082907f8be0079c531659141344cd1fd0a4f28419497f9722a3daafe3b4186f6b6457e0905f90a35050565b5f5f5f60405f855160208701885afa92505f51915060205190509250925092565b6001600160a01b03811681146102c9575f5ffd5b50565b5f5f5f606084860312156102de575f5ffd5b83516102e9816102b5565b60208501519093506102fa816102b5565b604085015190925061030b816102b5565b809150509250925092565b634e487b7160e01b5f52604160045260245ffd5b600181811c9082168061033e57607f821691505b60208210810361035c57634e487b7160e01b5f52602260045260245ffd5b50919050565b601f8211156103a957805f5260205f20601f840160051c810160208510156103875750805b601f840160051c820191505b818110156103a6575f8155600101610393565b50505b505050565b81516001600160401b038111156103c7576103c7610316565b6103db816103d5845461032a565b84610362565b6020601f82116001811461040d575f83156103f65750848201515b5f19600385901b1c1916600184901b1784556103a6565b5f84815260208120601f198516915b8281101561043c578785015182556020948501946001909201910161041c565b508482101561045957868401515f19600387901b60f8161c191681555b50505050600190811b01905550565b5f60208284031215610478575f5ffd5b81518015158114610487575f5ffd5b9392505050565b60805160a05160c0516116bc6104f75f395f818161033c015281816104db0152818161056a01528181610aa20152610c6001525f6109c401525f818161027a01528181610432015281816109f701528181610b9e015281816110eb015261118301526116bc5ff3fe608060405234801561000f575f5ffd5b50600436106101c6575f3560e01c80638da5cb5b116100fe578063ba0876521161009e578063d905777e1161006e578063d905777e146103d0578063dd62ed3e146103e3578063ef8b30f7146103aa578063f2fde38b1461041b575f5ffd5b8063ba08765214610397578063c63d75b6146102b2578063c6e6f592146103aa578063ce96cb77146103bd575f5ffd5b8063a8c62e76116100d9578063a8c62e7614610337578063a9059cbb1461035e578063b3d7f6b914610371578063b460af9414610384575f5ffd5b80638da5cb5b1461030b57806394bf804d1461031c57806395d89b411461032f575f5ffd5b8063313ce567116101695780634cdad506116101445780634cdad506146101fa5780636e553f65146102c657806370a08231146102d9578063715018a614610301575f5ffd5b8063313ce5671461025e57806338d52e0f14610278578063402d267d146102b2575f5ffd5b8063095ea7b3116101a4578063095ea7b31461020d5780630a28a4771461023057806318160ddd1461024357806323b872dd1461024b575f5ffd5b806301e1d114146101ca57806306fdde03146101e557806307a2d13a146101fa575b5f5ffd5b6101d261042e565b6040519081526020015b60405180910390f35b6101ed6105ef565b6040516101dc9190611310565b6101d2610208366004611345565b61067f565b61022061021b366004611377565b610690565b60405190151581526020016101dc565b6101d261023e366004611345565b6106a7565b6002546101d2565b61022061025936600461139f565b6106b3565b6102666106d8565b60405160ff90911681526020016101dc565b7f00000000000000000000000000000000000000000000000000000000000000005b6040516001600160a01b0390911681526020016101dc565b6101d26102c03660046113d9565b505f1990565b6101d26102d43660046113f2565b6106e6565b6101d26102e73660046113d9565b6001600160a01b03165f9081526020819052604090205490565b610309610717565b005b6005546001600160a01b031661029a565b6101d261032a3660046113f2565b61072a565b6101ed610745565b61029a7f000000000000000000000000000000000000000000000000000000000000000081565b61022061036c366004611377565b610754565b6101d261037f366004611345565b610761565b6101d261039236600461141c565b61076d565b6101d26103a536600461141c565b6107c3565b6101d26103b8366004611345565b610810565b6101d26103cb3660046113d9565b61081b565b6101d26103de3660046113d9565b610824565b6101d26103f1366004611455565b6001600160a01b039182165f90815260016020908152604080832093909416825291909152205490565b6103096104293660046113d9565b610841565b5f807f00000000000000000000000000000000000000000000000000000000000000006040516370a0823160e01b81523060048201526001600160a01b0391909116906370a0823190602401602060405180830381865afa158015610495573d5f5f3e3d5ffd5b505050506040513d601f19601f820116820180604052508101906104b9919061147d565b6040516370a0823160e01b81523060048201529091505f906001600160a01b037f000000000000000000000000000000000000000000000000000000000000000016906370a0823190602401602060405180830381865afa158015610520573d5f5f3e3d5ffd5b505050506040513d601f19601f82011682018060405250810190610544919061147d565b90505f5f8211610554575f6105db565b6040516303d1689d60e11b8152600481018390527f00000000000000000000000000000000000000000000000000000000000000006001600160a01b0316906307a2d13a90602401602060405180830381865afa1580156105b7573d5f5f3e3d5ffd5b505050506040513d601f19601f820116820180604052508101906105db919061147d565b90506105e781846114a8565b935050505090565b6060600380546105fe906114bb565b80601f016020809104026020016040519081016040528092919081815260200182805461062a906114bb565b80156106755780601f1061064c57610100808354040283529160200191610675565b820191905f5260205f20905b81548152906001019060200180831161065857829003601f168201915b5050505050905090565b5f61068a825f61087e565b92915050565b5f3361069d8185856108b6565b5060019392505050565b5f61068a8260016108c8565b5f336106c08582856108f7565b6106cb858585610960565b60019150505b9392505050565b5f6106e16109bd565b905090565b5f5f196106f7565b60405180910390fd5b5f61070185610810565b905061070f338587846109e8565b949350505050565b61071f610b1d565b6107285f610b4a565b565b5f5f195f61073785610761565b905061070f338583886109e8565b6060600480546105fe906114bb565b5f3361069d818585610960565b5f61068a82600161087e565b5f5f6107788361081b565b9050808511156107a157828582604051633fa733bb60e21b81526004016106ee939291906114f3565b5f6107ab866106a7565b90506107ba3386868985610b9b565b95945050505050565b5f5f6107ce83610824565b9050808511156107f757828582604051632e52afbb60e21b81526004016106ee939291906114f3565b5f6108018661067f565b90506107ba338686848a610b9b565b5f61068a825f6108c8565b5f61068a610208835b6001600160a01b0381165f9081526020819052604081205461068a565b610849610b1d565b6001600160a01b03811661087257604051631e4fbdf760e01b81525f60048201526024016106ee565b61087b81610b4a565b50565b5f6106d161088a61042e565b6108959060016114a8565b6108a05f600a6115f7565b6002546108ad91906114a8565b85919085610ce2565b6108c38383836001610d24565b505050565b5f6106d16108d782600a6115f7565b6002546108e491906114a8565b6108ec61042e565b6108ad9060016114a8565b6001600160a01b038381165f908152600160209081526040808320938616835292905220545f1981101561095a578181101561094c57828183604051637dc7a0d960e11b81526004016106ee939291906114f3565b61095a84848484035f610d24565b50505050565b6001600160a01b03831661098957604051634b637e8f60e11b81525f60048201526024016106ee565b6001600160a01b0382166109b25760405163ec442f0560e01b81525f60048201526024016106ee565b6108c3838383610df6565b5f6106e1817f0000000000000000000000000000000000000000000000000000000000000000611605565b6109f484848484610f09565b5f7f00000000000000000000000000000000000000000000000000000000000000006040516370a0823160e01b81523060048201526001600160a01b0391909116906370a0823190602401602060405180830381865afa158015610a5a573d5f5f3e3d5ffd5b505050506040513d601f19601f82011682018060405250810190610a7e919061147d565b90508015610b1657604051636e553f6560e01b8152600481018290523060248201527f00000000000000000000000000000000000000000000000000000000000000006001600160a01b031690636e553f65906044016020604051808303815f875af1158015610af0573d5f5f3e3d5ffd5b505050506040513d601f19601f82011682018060405250810190610b14919061147d565b505b5050505050565b6005546001600160a01b031633146107285760405163118cdaa760e01b81523360048201526024016106ee565b600580546001600160a01b038381166001600160a01b0319831681179093556040519116919082907f8be0079c531659141344cd1fd0a4f28419497f9722a3daafe3b4186f6b6457e0905f90a35050565b5f7f00000000000000000000000000000000000000000000000000000000000000006040516370a0823160e01b81523060048201526001600160a01b0391909116906370a0823190602401602060405180830381865afa158015610c01573d5f5f3e3d5ffd5b505050506040513d601f19601f82011682018060405250810190610c25919061147d565b905082811015610cd5575f610c3a828561161e565b604051632d182be560e21b815260048101829052306024820181905260448201529091507f00000000000000000000000000000000000000000000000000000000000000006001600160a01b03169063b460af94906064016020604051808303815f875af1158015610cae573d5f5f3e3d5ffd5b505050506040513d601f19601f82011682018060405250810190610cd2919061147d565b50505b610b148686868686610f6b565b5f610d0f610cef8361100a565b8015610d0a57505f8480610d0557610d05611631565b868809115b151590565b610d1a868686611036565b6107ba91906114a8565b6001600160a01b038416610d4d5760405163e602df0560e01b81525f60048201526024016106ee565b6001600160a01b038316610d7657604051634a1406b160e11b81525f60048201526024016106ee565b6001600160a01b038085165f908152600160209081526040808320938716835292905220829055801561095a57826001600160a01b0316846001600160a01b03167f8c5be1e5ebec7d5bd14f71427d1e84f3dd0314c0f7b2291e5b200ac8c7c3b92584604051610de891815260200190565b60405180910390a350505050565b6001600160a01b038316610e20578060025f828254610e1591906114a8565b90915550610e7d9050565b6001600160a01b0383165f9081526020819052604090205481811015610e5f5783818360405163391434e360e21b81526004016106ee939291906114f3565b6001600160a01b0384165f9081526020819052604090209082900390555b6001600160a01b038216610e9957600280548290039055610eb7565b6001600160a01b0382165f9081526020819052604090208054820190555b816001600160a01b0316836001600160a01b03167fddf252ad1be2c89b69c2b068fc378daa952ba7f163c4a11628f55a4df523b3ef83604051610efc91815260200190565b60405180910390a3505050565b610f1384836110e6565b610f1d8382611116565b826001600160a01b0316846001600160a01b03167fdcbc1c05240f31ff3ad067ef1ee35ce4997762752e3a095284754544f4c709d78484604051610de8929190918252602082015260400190565b826001600160a01b0316856001600160a01b031614610f8f57610f8f8386836108f7565b610f99838261114a565b610fa3848361117e565b826001600160a01b0316846001600160a01b0316866001600160a01b03167ffbde797d201c681b91056529119e0b02407c7bb96a4a2c75c01fc9667232c8db8585604051610ffb929190918252602082015260400190565b60405180910390a45050505050565b5f600282600381111561101f5761101f611645565b6110299190611659565b60ff166001149050919050565b5f5f5f61104386866111a9565b91509150815f036110675783818161105d5761105d611631565b04925050506106d1565b81841161107e5761107e60038515026011186111c5565b5f848688095f868103871696879004966002600389028118808a02820302808a02820302808a02820302808a02820302808a02820302808a02909103029181900381900460010185841190960395909502919093039390930492909217029150509392505050565b6111127f00000000000000000000000000000000000000000000000000000000000000008330846111d6565b5050565b6001600160a01b03821661113f5760405163ec442f0560e01b81525f60048201526024016106ee565b6111125f8383610df6565b6001600160a01b03821661117357604051634b637e8f60e11b81525f60048201526024016106ee565b611112825f83610df6565b6111127f0000000000000000000000000000000000000000000000000000000000000000838361120c565b5f805f1983850993909202808410938190039390930393915050565b634e487b715f52806020526024601cfd5b6111e4848484846001611241565b61095a57604051635274afe760e01b81526001600160a01b03851660048201526024016106ee565b61121983838360016112ae565b6108c357604051635274afe760e01b81526001600160a01b03841660048201526024016106ee565b6040516323b872dd60e01b5f8181526001600160a01b038781166004528616602452604485905291602083606481808c5af1925060015f5114831661129d578383151615611291573d5f823e3d81fd5b5f883b113d1516831692505b604052505f60605295945050505050565b60405163a9059cbb60e01b5f8181526001600160a01b038616600452602485905291602083604481808b5af1925060015f511483166113045783831516156112f8573d5f823e3d81fd5b5f873b113d1516831692505b60405250949350505050565b602081525f82518060208401528060208501604085015e5f604082850101526040601f19601f83011684010191505092915050565b5f60208284031215611355575f5ffd5b5035919050565b80356001600160a01b0381168114611372575f5ffd5b919050565b5f5f60408385031215611388575f5ffd5b6113918361135c565b946020939093013593505050565b5f5f5f606084860312156113b1575f5ffd5b6113ba8461135c565b92506113c86020850161135c565b929592945050506040919091013590565b5f602082840312156113e9575f5ffd5b6106d18261135c565b5f5f60408385031215611403575f5ffd5b823591506114136020840161135c565b90509250929050565b5f5f5f6060848603121561142e575f5ffd5b8335925061143e6020850161135c565b915061144c6040850161135c565b90509250925092565b5f5f60408385031215611466575f5ffd5b61146f8361135c565b91506114136020840161135c565b5f6020828403121561148d575f5ffd5b5051919050565b634e487b7160e01b5f52601160045260245ffd5b8082018082111561068a5761068a611494565b600181811c908216806114cf57607f821691505b6020821081036114ed57634e487b7160e01b5f52602260045260245ffd5b50919050565b6001600160a01b039390931683526020830191909152604082015260600190565b6001815b600184111561154f5780850481111561153357611533611494565b600184161561154157908102905b60019390931c928002611518565b935093915050565b5f826115655750600161068a565b8161157157505f61068a565b81600181146115875760028114611591576115ad565b600191505061068a565b60ff8411156115a2576115a2611494565b50506001821b61068a565b5060208310610133831016604e8410600b84101617156115d0575081810a61068a565b6115dc5f198484611514565b805f19048211156115ef576115ef611494565b029392505050565b5f6106d160ff841683611557565b60ff818116838216019081111561068a5761068a611494565b8181038181111561068a5761068a611494565b634e487b7160e01b5f52601260045260245ffd5b634e487b7160e01b5f52602160045260245ffd5b5f60ff83168061167757634e487b7160e01b5f52601260045260245ffd5b8060ff8416069150509291505056fea2646970667358221220aa3652894e2e6f396bc90a8c71f1c25c47609737cd794f852a58aeb1b7c1c05964736f6c634300081e0033",
  "linkReferences": {},
  "deployedLinkReferences": {},
  "immutableReferences": {
    "1164": [
      {
        "length": 32,
        "start": 634
      },
      {
        "length": 32,
        "start": 1074
      },
      {
        "length": 32,
        "start": 2551
      },
      {
        "length": 32,
        "start": 2974
      },
      {
        "length": 32,
        "start": 4331
      },
      {
        "length": 32,
        "start": 4483
      }
    ],
    "1166": [
      {
        "length": 32,
        "start": 2500
      }
    ],
    "6403": [
      {
        "length": 32,
        "start": 828
      },
      {
        "length": 32,
        "start": 1243
      },
      {
        "length": 32,
        "start": 1386
      },
      {
        "length": 32,
        "start": 2722
      },
      {
        "length": 32,
        "start": 3168
      }
    ]
  },
  "inputSourceName": "project/contracts/VaultT.sol",
  "buildInfoId": "solc-0_8_30-42d0d803bb1e339f3d21cc693623dd1f100f3537"
}