{
  "_format": "hh3-artifact-1",
  "contractName": "VaultMockYield",
  "sourceName": "contracts/VaultMockYield.sol",
  "abi": [
    {
      "inputs": [
        {
          "internalType": "contract IERC20",
          "name": "asset_",
          "type": "address"
        },
        {
          "internalType": "address",
          "name": "owner_",
          "type": "address"
        }
      ],
      "stateMutability": "nonpayable",
      "type": "constructor"
    },
    {
      "inputs": [
        {
          "internalType": "address",
          "name": "spender",
          "type": "address"
        },
        {
          "internalType": "uint256",
          "name": "allowance",
          "type": "uint256"
        },
        {
          "internalType": "uint256",
          "name": "needed",
          "type": "uint256"
        }
      ],
      "name": "ERC20InsufficientAllowance",
      "type": "error"
    },
    {
      "inputs": [
        {
          "internalType": "address",
          "name": "sender",
          "type": "address"
        },
        {
          "internalType": "uint256",
          "name": "balance",
          "type": "uint256"
        },
        {
          "internalType": "uint256",
          "name": "needed",
          "type": "uint256"
        }
      ],
      "name": "ERC20InsufficientBalance",
      "type": "error"
    },
    {
      "inputs": [
        {
          "internalType": "address",
          "name": "approver",
          "type": "address"
        }
      ],
      "name": "ERC20InvalidApprover",
      "type": "error"
    },
    {
      "inputs": [
        {
          "internalType": "address",
          "name": "receiver",
          "type": "address"
        }
      ],
      "name": "ERC20InvalidReceiver",
      "type": "error"
    },
    {
      "inputs": [
        {
          "internalType": "address",
          "name": "sender",
          "type": "address"
        }
      ],
      "name": "ERC20InvalidSender",
      "type": "error"
    },
    {
      "inputs": [
        {
          "internalType": "address",
          "name": "spender",
          "type": "address"
        }
      ],
      "name": "ERC20InvalidSpender",
      "type": "error"
    },
    {
      "inputs": [
        {
          "internalType": "address",
          "name": "receiver",
          "type": "address"
        },
        {
          "internalType": "uint256",
          "name": "assets",
          "type": "uint256"
        },
        {
          "internalType": "uint256",
          "name": "max",
          "type": "uint256"
        }
      ],
      "name": "ERC4626ExceededMaxDeposit",
      "type": "error"
    },
    {
      "inputs": [
        {
          "internalType": "address",
          "name": "receiver",
          "type": "address"
        },
        {
          "internalType": "uint256",
          "name": "shares",
          "type": "uint256"
        },
        {
          "internalType": "uint256",
          "name": "max",
          "type": "uint256"
        }
      ],
      "name": "ERC4626ExceededMaxMint",
      "type": "error"
    },
    {
      "inputs": [
        {
          "internalType": "address",
          "name": "owner",
          "type": "address"
        },
        {
          "internalType": "uint256",
          "name": "shares",
          "type": "uint256"
        },
        {
          "internalType": "uint256",
          "name": "max",
          "type": "uint256"
        }
      ],
      "name": "ERC4626ExceededMaxRedeem",
      "type": "error"
    },
    {
      "inputs": [
        {
          "internalType": "address",
          "name": "owner",
          "type": "address"
        },
        {
          "internalType": "uint256",
          "name": "assets",
          "type": "uint256"
        },
        {
          "internalType": "uint256",
          "name": "max",
          "type": "uint256"
        }
      ],
      "name": "ERC4626ExceededMaxWithdraw",
      "type": "error"
    },
    {
      "inputs": [
        {
          "internalType": "uint8",
          "name": "decimals",
          "type": "uint8"
        }
      ],
      "name": "InvalidDecimals",
      "type": "error"
    },
    {
      "inputs": [
        {
          "internalType": "uint256",
          "name": "rateBps",
          "type": "uint256"
        }
      ],
      "name": "MockRateTooHigh",
      "type": "error"
    },
    {
      "inputs": [
        {
          "internalType": "address",
          "name": "owner",
          "type": "address"
        }
      ],
      "name": "OwnableInvalidOwner",
      "type": "error"
    },
    {
      "inputs": [
        {
          "internalType": "address",
          "name": "account",
          "type": "address"
        }
      ],
      "name": "OwnableUnauthorizedAccount",
      "type": "error"
    },
    {
      "inputs": [
        {
          "internalType": "address",
          "name": "token",
          "type": "address"
        }
      ],
      "name": "SafeERC20FailedOperation",
      "type": "error"
    },
    {
      "inputs": [],
      "name": "ZeroAddress",
      "type": "error"
    },
    {
      "anonymous": false,
      "inputs": [
        {
          "indexed": true,
          "internalType": "address",
          "name": "owner",
          "type": "address"
        },
        {
          "indexed": true,
          "internalType": "address",
          "name": "spender",
          "type": "address"
        },
        {
          "indexed": false,
          "internalType": "uint256",
          "name": "value",
          "type": "uint256"
        }
      ],
      "name": "Approval",
      "type": "event"
    },
    {
      "anonymous": false,
      "inputs": [
        {
          "indexed": true,
          "internalType": "address",
          "name": "sender",
          "type": "address"
        },
        {
          "indexed": true,
          "internalType": "address",
          "name": "owner",
          "type": "address"
        },
        {
          "indexed": false,
          "internalType": "uint256",
          "name": "assets",
          "type": "uint256"
        },
        {
          "indexed": false,
          "internalType": "uint256",
          "name": "shares",
          "type": "uint256"
        }
      ],
      "name": "Deposit",
      "type": "event"
    },
    {
      "anonymous": false,
      "inputs": [
        {
          "indexed": false,
          "internalType": "uint256",
          "name": "oldRateBps",
          "type": "uint256"
        },
        {
          "indexed": false,
          "internalType": "uint256",
          "name": "newRateBps",
          "type": "uint256"
        }
      ],
      "name": "MockRateUpdated",
      "type": "event"
    },
    {
      "anonymous": false,
      "inputs": [
        {
          "indexed": true,
          "internalType": "address",
          "name": "previousOwner",
          "type": "address"
        },
        {
          "indexed": true,
          "internalType": "address",
          "name": "newOwner",
          "type": "address"
        }
      ],
      "name": "OwnershipTransferred",
      "type": "event"
    },
    {
      "anonymous": false,
      "inputs": [
        {
          "indexed": true,
          "internalType": "address",
          "name": "from",
          "type": "address"
        },
        {
          "indexed": true,
          "internalType": "address",
          "name": "to",
          "type": "address"
        },
        {
          "indexed": false,
          "internalType": "uint256",
          "name": "value",
          "type": "uint256"
        }
      ],
      "name": "Transfer",
      "type": "event"
    },
    {
      "anonymous": false,
      "inputs": [
        {
          "indexed": true,
          "internalType": "address",
          "name": "sender",
          "type": "address"
        },
        {
          "indexed": true,
          "internalType": "address",
          "name": "receiver",
          "type": "address"
        },
        {
          "indexed": true,
          "internalType": "address",
          "name": "owner",
          "type": "address"
        },
        {
          "indexed": false,
          "internalType": "uint256",
          "name": "assets",
          "type": "uint256"
        },
        {
          "indexed": false,
          "internalType": "uint256",
          "name": "shares",
          "type": "uint256"
        }
      ],
      "name": "Withdraw",
      "type": "event"
    },
    {
      "anonymous": false,
      "inputs": [
        {
          "indexed": false,
          "internalType": "uint256",
          "name": "yieldAmount",
          "type": "uint256"
        },
        {
          "indexed": false,
          "internalType": "uint256",
          "name": "newTotalAssets",
          "type": "uint256"
        }
      ],
      "name": "YieldAccrued",
      "type": "event"
    },
    {
      "inputs": [],
      "name": "MAX_RATE_BPS",
      "outputs": [
        {
          "internalType": "uint256",
          "name": "",
          "type": "uint256"
        }
      ],
      "stateMutability": "view",
      "type": "function"
    },
    {
      "inputs": [],
      "name": "accrueYield",
      "outputs": [],
      "stateMutability": "nonpayable",
      "type": "function"
    },
    {
      "inputs": [
        {
          "internalType": "address",
          "name": "owner",
          "type": "address"
        },
        {
          "internalType": "address",
          "name": "spender",
          "type": "address"
        }
      ],
      "name": "allowance",
      "outputs": [
        {
          "internalType": "uint256",
          "name": "",
          "type": "uint256"
        }
      ],
      "stateMutability": "view",
      "type": "function"
    },
    {
      "inputs": [
        {
          "internalType": "address",
          "name": "spender",
          "type": "address"
        },
        {
          "internalType": "uint256",
          "name": "value",
          "type": "uint256"
        }
      ],
      "name": "approve",
      "outputs": [
        {
          "internalType": "bool",
          "name": "",
          "type": "bool"
        }
      ],
      "stateMutability": "nonpayable",
      "type": "function"
    },
    {
      "inputs": [],
      "name": "asset",
      "outputs": [
        {
          "internalType": "address",
          "name": "",
          "type": "address"
        }
      ],
      "stateMutability": "view",
      "type": "function"
    },
    {
      "inputs": [
        {
          "internalType": "address",
          "name": "account",
          "type": "address"
        }
      ],
      "name": "balanceOf",
      "outputs": [
        {
          "internalType": "uint256",
          "name": "",
          "type": "uint256"
        }
      ],
      "stateMutability": "view",
      "type": "function"
    },
    {
      "inputs": [
        {
          "internalType": "uint256",
          "name": "shares",
          "type": "uint256"
        }
      ],
      "name": "convertToAssets",
      "outputs": [
        {
          "internalType": "uint256",
          "name": "",
          "type": "uint256"
        }
      ],
      "stateMutability": "view",
      "type": "function"
    },
    {
      "inputs": [
        {
          "internalType": "uint256",
          "name": "assets",
          "type": "uint256"
        }
      ],
      "name": "convertToShares",
      "outputs": [
        {
          "internalType": "uint256",
          "name": "",
          "type": "uint256"
        }
      ],
      "stateMutability": "view",
      "type": "function"
    },
    {
      "inputs": [],
      "name": "decimals",
      "outputs": [
        {
          "internalType": "uint8",
          "name": "",
          "type": "uint8"
        }
      ],
      "stateMutability": "view",
      "type": "function"
    },
    {
      "inputs": [
        {
          "internalType": "uint256",
          "name": "assets",
          "type": "uint256"
        },
        {
          "internalType": "address",
          "name": "receiver",
          "type": "address"
        }
      ],
      "name": "deposit",
      "outputs": [
        {
          "internalType": "uint256",
          "name": "",
          "type": "uint256"
        }
      ],
      "stateMutability": "nonpayable",
      "type": "function"
    },
    {
      "inputs": [],
      "name": "lastAccrualTimestamp",
      "outputs": [
        {
          "internalType": "uint256",
          "name": "",
          "type": "uint256"
        }
      ],
      "stateMutability": "view",
      "type": "function"
    },
    {
      "inputs": [
        {
          "internalType": "address",
          "name": "",
          "type": "address"
        }
      ],
      "name": "maxDeposit",
      "outputs": [
        {
          "internalType": "uint256",
          "name": "",
          "type": "uint256"
        }
      ],
      "stateMutability": "view",
      "type": "function"
    },
    {
      "inputs": [
        {
          "internalType": "address",
          "name": "",
          "type": "address"
        }
      ],
      "name": "maxMint",
      "outputs": [
        {
          "internalType": "uint256",
          "name": "",
          "type": "uint256"
        }
      ],
      "stateMutability": "view",
      "type": "function"
    },
    {
      "inputs": [
        {
          "internalType": "address",
          "name": "owner",
          "type": "address"
        }
      ],
      "name": "maxRedeem",
      "outputs": [
        {
          "internalType": "uint256",
          "name": "",
          "type": "uint256"
        }
      ],
      "stateMutability": "view",
      "type": "function"
    },
    {
      "inputs": [
        {
          "internalType": "address",
          "name": "owner",
          "type": "address"
        }
      ],
      "name": "maxWithdraw",
      "outputs": [
        {
          "internalType": "uint256",
          "name": "",
          "type": "uint256"
        }
      ],
      "stateMutability": "view",
      "type": "function"
    },
    {
      "inputs": [
        {
          "internalType": "uint256",
          "name": "shares",
          "type": "uint256"
        },
        {
          "internalType": "address",
          "name": "receiver",
          "type": "address"
        }
      ],
      "name": "mint",
      "outputs": [
        {
          "internalType": "uint256",
          "name": "",
          "type": "uint256"
        }
      ],
      "stateMutability": "nonpayable",
      "type": "function"
    },
    {
      "inputs": [],
      "name": "mockRateBps",
      "outputs": [
        {
          "internalType": "uint256",
          "name": "",
          "type": "uint256"
        }
      ],
      "stateMutability": "view",
      "type": "function"
    },
    {
      "inputs": [],
      "name": "mockUsdc",
      "outputs": [
        {
          "internalType": "contract IMockUSDC",
          "name": "",
          "type": "address"
        }
      ],
      "stateMutability": "view",
      "type": "function"
    },
    {
      "inputs": [],
      "name": "name",
      "outputs": [
        {
          "internalType": "string",
          "name": "",
          "type": "string"
        }
      ],
      "stateMutability": "view",
      "type": "function"
    },
    {
      "inputs": [],
      "name": "owner",
      "outputs": [
        {
          "internalType": "address",
          "name": "",
          "type": "address"
        }
      ],
      "stateMutability": "view",
      "type": "function"
    },
    {
      "inputs": [
        {
          "internalType": "uint256",
          "name": "assets",
          "type": "uint256"
        }
      ],
      "name": "previewDeposit",
      "outputs": [
        {
          "internalType": "uint256",
          "name": "",
          "type": "uint256"
        }
      ],
      "stateMutability": "view",
      "type": "function"
    },
    {
      "inputs": [
        {
          "internalType": "uint256",
          "name": "shares",
          "type": "uint256"
        }
      ],
      "name": "previewMint",
      "outputs": [
        {
          "internalType": "uint256",
          "name": "",
          "type": "uint256"
        }
      ],
      "stateMutability": "view",
      "type": "function"
    },
    {
      "inputs": [
        {
          "internalType": "uint256",
          "name": "shares",
          "type": "uint256"
        }
      ],
      "name": "previewRedeem",
      "outputs": [
        {
          "internalType": "uint256",
          "name": "",
          "type": "uint256"
        }
      ],
      "stateMutability": "view",
      "type": "function"
    },
    {
      "inputs": [
        {
          "internalType": "uint256",
          "name": "assets",
          "type": "uint256"
        }
      ],
      "name": "previewWithdraw",
      "outputs": [
        {
          "internalType": "uint256",
          "name": "",
          "type": "uint256"
        }
      ],
      "stateMutability": "view",
      "type": "function"
    },
    {
      "inputs": [
        {
          "internalType": "uint256",
          "name": "shares",
          "type": "uint256"
        },
        {
          "internalType": "address",
          "name": "receiver",
          "type": "address"
        },
        {
          "internalType": "address",
          "name": "owner",
          "type": "address"
        }
      ],
      "name": "redeem",
      "outputs": [
        {
          "internalType": "uint256",
          "name": "",
          "type": "uint256"
        }
      ],
      "stateMutability": "nonpayable",
      "type": "function"
    },
    {
      "inputs": [],
      "name": "renounceOwnership",
      "outputs": [],
      "stateMutability": "nonpayable",
      "type": "function"
    },
    {
      "inputs": [
        {
          "internalType": "uint256",
          "name": "newRateBps",
          "type": "uint256"
        }
      ],
      "name": "setMockRate",
      "outputs": [],
      "stateMutability": "nonpayable",
      "type": "function"
    },
    {
      "inputs": [],
      "name": "symbol",
      "outputs": [
        {
          "internalType": "string",
          "name": "",
          "type": "string"
        }
      ],
      "stateMutability": "view",
      "type": "function"
    },
    {
      "inputs": [],
      "name": "totalAssets",
      "outputs": [
        {
          "internalType": "uint256",
          "name": "",
          "type": "uint256"
        }
      ],
      "stateMutability": "view",
      "type": "function"
    },
    {
      "inputs": [],
      "name": "totalSupply",
      "outputs": [
        {
          "internalType": "uint256",
          "name": "",
          "type": "uint256"
        }
      ],
      "stateMutability": "view",
      "type": "function"
    },
    {
      "inputs": [
        {
          "internalType": "address",
          "name": "to",
          "type": "address"
        },
        {
          "internalType": "uint256",
          "name": "value",
          "type": "uint256"
        }
      ],
      "name": "transfer",
      "outputs": [
        {
          "internalType": "bool",
          "name": "",
          "type": "bool"
        }
      ],
      "stateMutability": "nonpayable",
      "type": "function"
    },
    {
      "inputs": [
        {
          "internalType": "address",
          "name": "from",
          "type": "address"
        },
        {
          "internalType": "address",
          "name": "to",
          "type": "address"
        },
        {
          "internalType": "uint256",
          "name": "value",
          "type": "uint256"
        }
      ],
      "name": "transferFrom",
      "outputs": [
        {
          "internalType": "bool",
          "name": "",
          "type": "bool"
        }
      ],
      "stateMutability": "nonpayable",
      "type": "function"
    },
    {
      "inputs": [
        {
          "internalType": "address",
          "name": "newOwner",
          "type": "address"
        }
      ],
      "name": "transferOwnership",
      "outputs": [],
      "stateMutability": "nonpayable",
      "type": "function"
    },
    {
      "inputs": [
        {
          "internalType": "uint256",
          "name": "assets",
          "type": "uint256"
        },
        {
          "internalType": "address",
          "name": "receiver",
          "type": "address"
        },
        {
          "internalType": "address",
          "name": "owner",
          "type": "address"
        }
      ],
      "name": "withdraw",
      "outputs": [
        {
          "internalType": "uint256",
          "name": "",
          "type": "uint256"
        }
      ],
      "stateMutability": "nonpayable",
      "type": "function"
    }
  ],
  "bytecode": "0x60e060405234801561000f575f5ffd5b50604051611af0380380611af083398101604081905261002e91610374565b80826040518060400160405280601781526020017f4f5543485549204d6f636b205969656c64205661756c74000000000000000000815250604051806040016040528060038152602001624f4d5960e81b81525081600390816100919190610444565b50600461009e8282610444565b5050505f5f6100b28361025a60201b60201c565b91509150816100c25760126100c4565b805b60ff1660a05250506001600160a01b03908116608052811661010057604051631e4fbdf760e01b81525f60048201526024015b60405180910390fd5b610109816102eb565b506001600160a01b0382166101315760405163d92e233d60e01b815260040160405180910390fd5b6001600160a01b0381166101585760405163d92e233d60e01b815260040160405180910390fd5b6001600160a01b03821660c08190526040805163313ce56760e01b8152905163313ce567916004808201926020929091908290030181865afa1580156101a0573d5f5f3e3d5ffd5b505050506040513d601f19601f820116820180604052508101906101c491906104fe565b60ff1660061461024f5760c0516001600160a01b031663313ce5676040518163ffffffff1660e01b8152600401602060405180830381865afa15801561020c573d5f5f3e3d5ffd5b505050506040513d601f19601f8201168201806040525081019061023091906104fe565b60405163ca95039160e01b815260ff90911660048201526024016100f7565b505042600755610525565b5f808061026660405190565b6040805160048152602481019091526020810180516001600160e01b0390811663313ce56760e01b179091529192505f9182916102a69188919061033c16565b5090925090506102b583604052565b8180156102c3575060203d10155b80156102d0575060ff8111155b6102db575f5f6102df565b6001815b94509450505050915091565b600580546001600160a01b038381166001600160a01b0319831681179093556040519116919082907f8be0079c531659141344cd1fd0a4f28419497f9722a3daafe3b4186f6b6457e0905f90a35050565b5f5f5f60405f855160208701885afa92505f51915060205190509250925092565b6001600160a01b0381168114610371575f5ffd5b50565b5f5f60408385031215610385575f5ffd5b82516103908161035d565b60208401519092506103a18161035d565b809150509250929050565b634e487b7160e01b5f52604160045260245ffd5b600181811c908216806103d457607f821691505b6020821081036103f257634e487b7160e01b5f52602260045260245ffd5b50919050565b601f82111561043f57805f5260205f20601f840160051c8101602085101561041d5750805b601f840160051c820191505b8181101561043c575f8155600101610429565b50505b505050565b81516001600160401b0381111561045d5761045d6103ac565b6104718161046b84546103c0565b846103f8565b6020601f8211600181146104a3575f831561048c5750848201515b5f19600385901b1c1916600184901b17845561043c565b5f84815260208120601f198516915b828110156104d257878501518255602094850194600190920191016104b2565b50848210156104ef57868401515f19600387901b60f8161c191681555b50505050600190811b01905550565b5f6020828403121561050e575f5ffd5b815160ff8116811461051e575f5ffd5b9392505050565b60805160a05160c05161158161056f5f395f818161031f015281816105bb015261074e01525f50505f81816102bb0152818161049e01528181610f92015261102a01526115815ff3fe608060405234801561000f575f5ffd5b50600436106101fd575f3560e01c80638da5cb5b11610114578063c0789dcb116100a9578063d1f6bfd111610079578063d1f6bfd114610434578063d905777e1461043d578063dd62ed3e14610450578063ef8b30f71461040e578063f2fde38b14610488575f5ffd5b8063c0789dcb14610405578063c63d75b6146102f3578063c6e6f5921461040e578063ce96cb7714610421575f5ffd5b8063b0c0c264116100e4578063b0c0c264146103c3578063b3d7f6b9146103cc578063b460af94146103df578063ba087652146103f2575f5ffd5b80638da5cb5b1461038457806394bf804d1461039557806395d89b41146103a8578063a9059cbb146103b0575f5ffd5b8063313ce567116101955780634cfe8d1a116101655780634cfe8d1a146103075780636877caa21461031a5780636e553f651461034157806370a0823114610354578063715018a61461037c575f5ffd5b8063313ce5671461029f57806338d52e0f146102b9578063402d267d146102f35780634cdad5061461023b575f5ffd5b8063095ea7b3116101d0578063095ea7b31461024e5780630a28a4771461027157806318160ddd1461028457806323b872dd1461028c575f5ffd5b806301e1d11414610201578063059d9c751461021c57806306fdde031461022657806307a2d13a1461023b575b5f5ffd5b61020961049b565b6040519081526020015b60405180910390f35b61022461052a565b005b61022e610662565b60405161021391906111b7565b6102096102493660046111ec565b6106f2565b61026161025c36600461121e565b610703565b6040519015158152602001610213565b61020961027f3660046111ec565b61071a565b600254610209565b61026161029a366004611246565b610726565b6102a761074b565b60405160ff9091168152602001610213565b7f00000000000000000000000000000000000000000000000000000000000000005b6040516001600160a01b039091168152602001610213565b610209610301366004611280565b505f1990565b6102246103153660046111ec565b6107cc565b6102db7f000000000000000000000000000000000000000000000000000000000000000081565b61020961034f366004611299565b610844565b610209610362366004611280565b6001600160a01b03165f9081526020819052604090205490565b610224610867565b6005546001600160a01b03166102db565b6102096103a3366004611299565b610878565b61022e610893565b6102616103be36600461121e565b6108a2565b61020961271081565b6102096103da3660046111ec565b6108af565b6102096103ed3660046112c3565b6108bb565b6102096104003660046112c3565b610911565b61020960075481565b61020961041c3660046111ec565b61095e565b61020961042f366004611280565b610969565b61020960065481565b61020961044b366004611280565b610972565b61020961045e3660046112fc565b6001600160a01b039182165f90815260016020908152604080832093909416825291909152205490565b610224610496366004611280565b61098f565b5f7f00000000000000000000000000000000000000000000000000000000000000006040516370a0823160e01b81523060048201526001600160a01b0391909116906370a0823190602401602060405180830381865afa158015610501573d5f5f3e3d5ffd5b505050506040513d601f19601f820116820180604052508101906105259190611324565b905090565b6105326109cc565b5f61053b61049b565b90505f6007544261054c919061134f565b42600755905081158061055f5750600654155b80610568575080155b15610571575050565b5f610591826006546105839190611362565b849064496cebb8005f6109f9565b9050805f0361059f57505050565b6040516340c10f1960e01b8152306004820152602481018290527f00000000000000000000000000000000000000000000000000000000000000006001600160a01b0316906340c10f19906044015f604051808303815f87803b158015610604575f5ffd5b505af1158015610616573d5f5f3e3d5ffd5b505050507ffe2ebf53456a69d7b70affc98b9021c791a9bce3af6fa5d24dfbc2db0f817b548161064461049b565b6040805192835260208301919091520160405180910390a15050505b565b60606003805461067190611379565b80601f016020809104026020016040519081016040528092919081815260200182805461069d90611379565b80156106e85780601f106106bf576101008083540402835291602001916106e8565b820191905f5260205f20905b8154815290600101906020018083116106cb57829003601f168201915b5050505050905090565b5f6106fd825f610a3b565b92915050565b5f33610710818585610a73565b5060019392505050565b5f6106fd826001610a85565b5f33610733858285610ab4565b61073e858585610b1d565b60019150505b9392505050565b5f7f00000000000000000000000000000000000000000000000000000000000000006001600160a01b031663313ce5676040518163ffffffff1660e01b8152600401602060405180830381865afa1580156107a8573d5f5f3e3d5ffd5b505050506040513d601f19601f8201168201806040525081019061052591906113b1565b6107d46109cc565b6127108111156107ff57604051639322919760e01b8152600481018290526024015b60405180910390fd5b600680549082905560408051828152602081018490527fe24439ea71c96f9802d3764b9b8d5070d2bc6cd1222448a50289e709aebf2f88910160405180910390a15050565b5f5f195f6108518561095e565b905061085f33858784610b7a565b949350505050565b61086f6109cc565b6106605f610bea565b5f5f195f610885856108af565b905061085f33858388610b7a565b60606004805461067190611379565b5f33610710818585610b1d565b5f6106fd826001610a3b565b5f5f6108c683610969565b9050808511156108ef57828582604051633fa733bb60e21b81526004016107f6939291906113d1565b5f6108f98661071a565b90506109083386868985610c3b565b95945050505050565b5f5f61091c83610972565b90508085111561094557828582604051632e52afbb60e21b81526004016107f6939291906113d1565b5f61094f866106f2565b9050610908338686848a610c3b565b5f6106fd825f610a85565b5f6106fd610249835b6001600160a01b0381165f908152602081905260408120546106fd565b6109976109cc565b6001600160a01b0381166109c057604051631e4fbdf760e01b81525f60048201526024016107f6565b6109c981610bea565b50565b6005546001600160a01b031633146106605760405163118cdaa760e01b81523360048201526024016107f6565b5f610a26610a0683610cda565b8015610a2157505f8480610a1c57610a1c6113f2565b868809115b151590565b610a31868686610d06565b6109089190611406565b5f610744610a4761049b565b610a52906001611406565b610a5d5f600a6114fc565b600254610a6a9190611406565b859190856109f9565b610a808383836001610db6565b505050565b5f610744610a9482600a6114fc565b600254610aa19190611406565b610aa961049b565b610a6a906001611406565b6001600160a01b038381165f908152600160209081526040808320938616835292905220545f19811015610b175781811015610b0957828183604051637dc7a0d960e11b81526004016107f6939291906113d1565b610b1784848484035f610db6565b50505050565b6001600160a01b038316610b4657604051634b637e8f60e11b81525f60048201526024016107f6565b6001600160a01b038216610b6f5760405163ec442f0560e01b81525f60048201526024016107f6565b610a80838383610e7a565b610b848483610f8d565b610b8e8382610fbd565b826001600160a01b0316846001600160a01b03167fdcbc1c05240f31ff3ad067ef1ee35ce4997762752e3a095284754544f4c709d78484604051610bdc929190918252602082015260400190565b60405180910390a350505050565b600580546001600160a01b038381166001600160a01b0319831681179093556040519116919082907f8be0079c531659141344cd1fd0a4f28419497f9722a3daafe3b4186f6b6457e0905f90a35050565b826001600160a01b0316856001600160a01b031614610c5f57610c5f838683610ab4565b610c698382610ff1565b610c738483611025565b826001600160a01b0316846001600160a01b0316866001600160a01b03167ffbde797d201c681b91056529119e0b02407c7bb96a4a2c75c01fc9667232c8db8585604051610ccb929190918252602082015260400190565b60405180910390a45050505050565b5f6002826003811115610cef57610cef61150a565b610cf9919061151e565b60ff166001149050919050565b5f5f5f610d138686611050565b91509150815f03610d3757838181610d2d57610d2d6113f2565b0492505050610744565b818411610d4e57610d4e600385150260111861106c565b5f848688095f868103871696879004966002600389028118808a02820302808a02820302808a02820302808a02820302808a02820302808a02909103029181900381900460010185841190960395909502919093039390930492909217029150509392505050565b6001600160a01b038416610ddf5760405163e602df0560e01b81525f60048201526024016107f6565b6001600160a01b038316610e0857604051634a1406b160e11b81525f60048201526024016107f6565b6001600160a01b038085165f9081526001602090815260408083209387168352929052208290558015610b1757826001600160a01b0316846001600160a01b03167f8c5be1e5ebec7d5bd14f71427d1e84f3dd0314c0f7b2291e5b200ac8c7c3b92584604051610bdc91815260200190565b6001600160a01b038316610ea4578060025f828254610e999190611406565b90915550610f019050565b6001600160a01b0383165f9081526020819052604090205481811015610ee35783818360405163391434e360e21b81526004016107f6939291906113d1565b6001600160a01b0384165f9081526020819052604090209082900390555b6001600160a01b038216610f1d57600280548290039055610f3b565b6001600160a01b0382165f9081526020819052604090208054820190555b816001600160a01b0316836001600160a01b03167fddf252ad1be2c89b69c2b068fc378daa952ba7f163c4a11628f55a4df523b3ef83604051610f8091815260200190565b60405180910390a3505050565b610fb97f000000000000000000000000000000000000000000000000000000000000000083308461107d565b5050565b6001600160a01b038216610fe65760405163ec442f0560e01b81525f60048201526024016107f6565b610fb95f8383610e7a565b6001600160a01b03821661101a57604051634b637e8f60e11b81525f60048201526024016107f6565b610fb9825f83610e7a565b610fb97f000000000000000000000000000000000000000000000000000000000000000083836110b3565b5f805f1983850993909202808410938190039390930393915050565b634e487b715f52806020526024601cfd5b61108b8484848460016110e8565b610b1757604051635274afe760e01b81526001600160a01b03851660048201526024016107f6565b6110c08383836001611155565b610a8057604051635274afe760e01b81526001600160a01b03841660048201526024016107f6565b6040516323b872dd60e01b5f8181526001600160a01b038781166004528616602452604485905291602083606481808c5af1925060015f51148316611144578383151615611138573d5f823e3d81fd5b5f883b113d1516831692505b604052505f60605295945050505050565b60405163a9059cbb60e01b5f8181526001600160a01b038616600452602485905291602083604481808b5af1925060015f511483166111ab57838315161561119f573d5f823e3d81fd5b5f873b113d1516831692505b60405250949350505050565b602081525f82518060208401528060208501604085015e5f604082850101526040601f19601f83011684010191505092915050565b5f602082840312156111fc575f5ffd5b5035919050565b80356001600160a01b0381168114611219575f5ffd5b919050565b5f5f6040838503121561122f575f5ffd5b61123883611203565b946020939093013593505050565b5f5f5f60608486031215611258575f5ffd5b61126184611203565b925061126f60208501611203565b929592945050506040919091013590565b5f60208284031215611290575f5ffd5b61074482611203565b5f5f604083850312156112aa575f5ffd5b823591506112ba60208401611203565b90509250929050565b5f5f5f606084860312156112d5575f5ffd5b833592506112e560208501611203565b91506112f360408501611203565b90509250925092565b5f5f6040838503121561130d575f5ffd5b61131683611203565b91506112ba60208401611203565b5f60208284031215611334575f5ffd5b5051919050565b634e487b7160e01b5f52601160045260245ffd5b818103818111156106fd576106fd61133b565b80820281158282048414176106fd576106fd61133b565b600181811c9082168061138d57607f821691505b6020821081036113ab57634e487b7160e01b5f52602260045260245ffd5b50919050565b5f602082840312156113c1575f5ffd5b815160ff81168114610744575f5ffd5b6001600160a01b039390931683526020830191909152604082015260600190565b634e487b7160e01b5f52601260045260245ffd5b808201808211156106fd576106fd61133b565b6001815b6001841115611454578085048111156114385761143861133b565b600184161561144657908102905b60019390931c92800261141d565b935093915050565b5f8261146a575060016106fd565b8161147657505f6106fd565b816001811461148c5760028114611496576114b2565b60019150506106fd565b60ff8411156114a7576114a761133b565b50506001821b6106fd565b5060208310610133831016604e8410600b84101617156114d5575081810a6106fd565b6114e15f198484611419565b805f19048211156114f4576114f461133b565b029392505050565b5f61074460ff84168361145c565b634e487b7160e01b5f52602160045260245ffd5b5f60ff83168061153c57634e487b7160e01b5f52601260045260245ffd5b8060ff8416069150509291505056fea264697066735822122022dae42bab7d994f4fa0379049b2870a583e3675adac3ff0e39c31fd445441cb64736f6c634300081e0033",
  "linkReferences": {},
  "deployedLinkReferences": {},
  "immutableReferences": {
    "1164": [
      {
        "length": 32,
        "start": 699
      },
      {
        "length": 32,
        "start": 1182
      },
      {
        "length": 32,
        "start": 3986
      },
      {
        "length": 32,
        "start": 4138
      }
    ],
    "6414": [
      {
        "length": 32,
        "start": 799
      },
      {
        "length": 32,
        "start": 1467
      },
      {
        "length": 32,
        "start": 1870
      }
    ]
  },
  "inputSourceName": "project/contracts/VaultMockYield.sol",
  "buildInfoId": "solc-0_8_30-4f8f7560489ebbad710e7590a6706ba9babf72ca"
}