{
  "_format": "hh3-artifact-1",
  "contractName": "VaultD",
  "sourceName": "contracts/VaultD.sol",
  "abi": [
    {
      "inputs": [
        {
          "internalType": "contract IERC20",
          "name": "asset_",
          "type": "address"
        },
        {
          "internalType": "address",
          "name": "owner_",
          "type": "address"
        }
      ],
      "stateMutability": "nonpayable",
      "type": "constructor"
    },
    {
      "inputs": [
        {
          "internalType": "address",
          "name": "spender",
          "type": "address"
        },
        {
          "internalType": "uint256",
          "name": "allowance",
          "type": "uint256"
        },
        {
          "internalType": "uint256",
          "name": "needed",
          "type": "uint256"
        }
      ],
      "name": "ERC20InsufficientAllowance",
      "type": "error"
    },
    {
      "inputs": [
        {
          "internalType": "address",
          "name": "sender",
          "type": "address"
        },
        {
          "internalType": "uint256",
          "name": "balance",
          "type": "uint256"
        },
        {
          "internalType": "uint256",
          "name": "needed",
          "type": "uint256"
        }
      ],
      "name": "ERC20InsufficientBalance",
      "type": "error"
    },
    {
      "inputs": [
        {
          "internalType": "address",
          "name": "approver",
          "type": "address"
        }
      ],
      "name": "ERC20InvalidApprover",
      "type": "error"
    },
    {
      "inputs": [
        {
          "internalType": "address",
          "name": "receiver",
          "type": "address"
        }
      ],
      "name": "ERC20InvalidReceiver",
      "type": "error"
    },
    {
      "inputs": [
        {
          "internalType": "address",
          "name": "sender",
          "type": "address"
        }
      ],
      "name": "ERC20InvalidSender",
      "type": "error"
    },
    {
      "inputs": [
        {
          "internalType": "address",
          "name": "spender",
          "type": "address"
        }
      ],
      "name": "ERC20InvalidSpender",
      "type": "error"
    },
    {
      "inputs": [
        {
          "internalType": "address",
          "name": "receiver",
          "type": "address"
        },
        {
          "internalType": "uint256",
          "name": "assets",
          "type": "uint256"
        },
        {
          "internalType": "uint256",
          "name": "max",
          "type": "uint256"
        }
      ],
      "name": "ERC4626ExceededMaxDeposit",
      "type": "error"
    },
    {
      "inputs": [
        {
          "internalType": "address",
          "name": "receiver",
          "type": "address"
        },
        {
          "internalType": "uint256",
          "name": "shares",
          "type": "uint256"
        },
        {
          "internalType": "uint256",
          "name": "max",
          "type": "uint256"
        }
      ],
      "name": "ERC4626ExceededMaxMint",
      "type": "error"
    },
    {
      "inputs": [
        {
          "internalType": "address",
          "name": "owner",
          "type": "address"
        },
        {
          "internalType": "uint256",
          "name": "shares",
          "type": "uint256"
        },
        {
          "internalType": "uint256",
          "name": "max",
          "type": "uint256"
        }
      ],
      "name": "ERC4626ExceededMaxRedeem",
      "type": "error"
    },
    {
      "inputs": [
        {
          "internalType": "address",
          "name": "owner",
          "type": "address"
        },
        {
          "internalType": "uint256",
          "name": "assets",
          "type": "uint256"
        },
        {
          "internalType": "uint256",
          "name": "max",
          "type": "uint256"
        }
      ],
      "name": "ERC4626ExceededMaxWithdraw",
      "type": "error"
    },
    {
      "inputs": [
        {
          "internalType": "address",
          "name": "owner",
          "type": "address"
        }
      ],
      "name": "OwnableInvalidOwner",
      "type": "error"
    },
    {
      "inputs": [
        {
          "internalType": "address",
          "name": "account",
          "type": "address"
        }
      ],
      "name": "OwnableUnauthorizedAccount",
      "type": "error"
    },
    {
      "inputs": [
        {
          "internalType": "address",
          "name": "token",
          "type": "address"
        }
      ],
      "name": "SafeERC20FailedOperation",
      "type": "error"
    },
    {
      "anonymous": false,
      "inputs": [
        {
          "indexed": true,
          "internalType": "address",
          "name": "owner",
          "type": "address"
        },
        {
          "indexed": true,
          "internalType": "address",
          "name": "spender",
          "type": "address"
        },
        {
          "indexed": false,
          "internalType": "uint256",
          "name": "value",
          "type": "uint256"
        }
      ],
      "name": "Approval",
      "type": "event"
    },
    {
      "anonymous": false,
      "inputs": [
        {
          "indexed": true,
          "internalType": "address",
          "name": "sender",
          "type": "address"
        },
        {
          "indexed": true,
          "internalType": "address",
          "name": "owner",
          "type": "address"
        },
        {
          "indexed": false,
          "internalType": "uint256",
          "name": "assets",
          "type": "uint256"
        },
        {
          "indexed": false,
          "internalType": "uint256",
          "name": "shares",
          "type": "uint256"
        }
      ],
      "name": "Deposit",
      "type": "event"
    },
    {
      "anonymous": false,
      "inputs": [
        {
          "indexed": true,
          "internalType": "address",
          "name": "previousOwner",
          "type": "address"
        },
        {
          "indexed": true,
          "internalType": "address",
          "name": "newOwner",
          "type": "address"
        }
      ],
      "name": "OwnershipTransferred",
      "type": "event"
    },
    {
      "anonymous": false,
      "inputs": [
        {
          "indexed": true,
          "internalType": "address",
          "name": "from",
          "type": "address"
        },
        {
          "indexed": true,
          "internalType": "address",
          "name": "to",
          "type": "address"
        },
        {
          "indexed": false,
          "internalType": "uint256",
          "name": "value",
          "type": "uint256"
        }
      ],
      "name": "Transfer",
      "type": "event"
    },
    {
      "anonymous": false,
      "inputs": [
        {
          "indexed": true,
          "internalType": "address",
          "name": "sender",
          "type": "address"
        },
        {
          "indexed": true,
          "internalType": "address",
          "name": "receiver",
          "type": "address"
        },
        {
          "indexed": true,
          "internalType": "address",
          "name": "owner",
          "type": "address"
        },
        {
          "indexed": false,
          "internalType": "uint256",
          "name": "assets",
          "type": "uint256"
        },
        {
          "indexed": false,
          "internalType": "uint256",
          "name": "shares",
          "type": "uint256"
        }
      ],
      "name": "Withdraw",
      "type": "event"
    },
    {
      "inputs": [
        {
          "internalType": "address",
          "name": "owner",
          "type": "address"
        },
        {
          "internalType": "address",
          "name": "spender",
          "type": "address"
        }
      ],
      "name": "allowance",
      "outputs": [
        {
          "internalType": "uint256",
          "name": "",
          "type": "uint256"
        }
      ],
      "stateMutability": "view",
      "type": "function"
    },
    {
      "inputs": [
        {
          "internalType": "address",
          "name": "spender",
          "type": "address"
        },
        {
          "internalType": "uint256",
          "name": "value",
          "type": "uint256"
        }
      ],
      "name": "approve",
      "outputs": [
        {
          "internalType": "bool",
          "name": "",
          "type": "bool"
        }
      ],
      "stateMutability": "nonpayable",
      "type": "function"
    },
    {
      "inputs": [],
      "name": "asset",
      "outputs": [
        {
          "internalType": "address",
          "name": "",
          "type": "address"
        }
      ],
      "stateMutability": "view",
      "type": "function"
    },
    {
      "inputs": [
        {
          "internalType": "address",
          "name": "account",
          "type": "address"
        }
      ],
      "name": "balanceOf",
      "outputs": [
        {
          "internalType": "uint256",
          "name": "",
          "type": "uint256"
        }
      ],
      "stateMutability": "view",
      "type": "function"
    },
    {
      "inputs": [
        {
          "internalType": "uint256",
          "name": "shares",
          "type": "uint256"
        }
      ],
      "name": "convertToAssets",
      "outputs": [
        {
          "internalType": "uint256",
          "name": "",
          "type": "uint256"
        }
      ],
      "stateMutability": "view",
      "type": "function"
    },
    {
      "inputs": [
        {
          "internalType": "uint256",
          "name": "assets",
          "type": "uint256"
        }
      ],
      "name": "convertToShares",
      "outputs": [
        {
          "internalType": "uint256",
          "name": "",
          "type": "uint256"
        }
      ],
      "stateMutability": "view",
      "type": "function"
    },
    {
      "inputs": [],
      "name": "decimals",
      "outputs": [
        {
          "internalType": "uint8",
          "name": "",
          "type": "uint8"
        }
      ],
      "stateMutability": "view",
      "type": "function"
    },
    {
      "inputs": [
        {
          "internalType": "uint256",
          "name": "assets",
          "type": "uint256"
        },
        {
          "internalType": "address",
          "name": "receiver",
          "type": "address"
        }
      ],
      "name": "deposit",
      "outputs": [
        {
          "internalType": "uint256",
          "name": "",
          "type": "uint256"
        }
      ],
      "stateMutability": "nonpayable",
      "type": "function"
    },
    {
      "inputs": [
        {
          "internalType": "address",
          "name": "",
          "type": "address"
        }
      ],
      "name": "maxDeposit",
      "outputs": [
        {
          "internalType": "uint256",
          "name": "",
          "type": "uint256"
        }
      ],
      "stateMutability": "view",
      "type": "function"
    },
    {
      "inputs": [
        {
          "internalType": "address",
          "name": "",
          "type": "address"
        }
      ],
      "name": "maxMint",
      "outputs": [
        {
          "internalType": "uint256",
          "name": "",
          "type": "uint256"
        }
      ],
      "stateMutability": "view",
      "type": "function"
    },
    {
      "inputs": [
        {
          "internalType": "address",
          "name": "owner",
          "type": "address"
        }
      ],
      "name": "maxRedeem",
      "outputs": [
        {
          "internalType": "uint256",
          "name": "",
          "type": "uint256"
        }
      ],
      "stateMutability": "view",
      "type": "function"
    },
    {
      "inputs": [
        {
          "internalType": "address",
          "name": "owner",
          "type": "address"
        }
      ],
      "name": "maxWithdraw",
      "outputs": [
        {
          "internalType": "uint256",
          "name": "",
          "type": "uint256"
        }
      ],
      "stateMutability": "view",
      "type": "function"
    },
    {
      "inputs": [
        {
          "internalType": "uint256",
          "name": "shares",
          "type": "uint256"
        },
        {
          "internalType": "address",
          "name": "receiver",
          "type": "address"
        }
      ],
      "name": "mint",
      "outputs": [
        {
          "internalType": "uint256",
          "name": "",
          "type": "uint256"
        }
      ],
      "stateMutability": "nonpayable",
      "type": "function"
    },
    {
      "inputs": [],
      "name": "name",
      "outputs": [
        {
          "internalType": "string",
          "name": "",
          "type": "string"
        }
      ],
      "stateMutability": "view",
      "type": "function"
    },
    {
      "inputs": [],
      "name": "owner",
      "outputs": [
        {
          "internalType": "address",
          "name": "",
          "type": "address"
        }
      ],
      "stateMutability": "view",
      "type": "function"
    },
    {
      "inputs": [
        {
          "internalType": "uint256",
          "name": "assets",
          "type": "uint256"
        }
      ],
      "name": "previewDeposit",
      "outputs": [
        {
          "internalType": "uint256",
          "name": "",
          "type": "uint256"
        }
      ],
      "stateMutability": "view",
      "type": "function"
    },
    {
      "inputs": [
        {
          "internalType": "uint256",
          "name": "shares",
          "type": "uint256"
        }
      ],
      "name": "previewMint",
      "outputs": [
        {
          "internalType": "uint256",
          "name": "",
          "type": "uint256"
        }
      ],
      "stateMutability": "view",
      "type": "function"
    },
    {
      "inputs": [
        {
          "internalType": "uint256",
          "name": "shares",
          "type": "uint256"
        }
      ],
      "name": "previewRedeem",
      "outputs": [
        {
          "internalType": "uint256",
          "name": "",
          "type": "uint256"
        }
      ],
      "stateMutability": "view",
      "type": "function"
    },
    {
      "inputs": [
        {
          "internalType": "uint256",
          "name": "assets",
          "type": "uint256"
        }
      ],
      "name": "previewWithdraw",
      "outputs": [
        {
          "internalType": "uint256",
          "name": "",
          "type": "uint256"
        }
      ],
      "stateMutability": "view",
      "type": "function"
    },
    {
      "inputs": [
        {
          "internalType": "uint256",
          "name": "shares",
          "type": "uint256"
        },
        {
          "internalType": "address",
          "name": "receiver",
          "type": "address"
        },
        {
          "internalType": "address",
          "name": "owner",
          "type": "address"
        }
      ],
      "name": "redeem",
      "outputs": [
        {
          "internalType": "uint256",
          "name": "",
          "type": "uint256"
        }
      ],
      "stateMutability": "nonpayable",
      "type": "function"
    },
    {
      "inputs": [],
      "name": "renounceOwnership",
      "outputs": [],
      "stateMutability": "nonpayable",
      "type": "function"
    },
    {
      "inputs": [],
      "name": "symbol",
      "outputs": [
        {
          "internalType": "string",
          "name": "",
          "type": "string"
        }
      ],
      "stateMutability": "view",
      "type": "function"
    },
    {
      "inputs": [],
      "name": "totalAssets",
      "outputs": [
        {
          "internalType": "uint256",
          "name": "",
          "type": "uint256"
        }
      ],
      "stateMutability": "view",
      "type": "function"
    },
    {
      "inputs": [],
      "name": "totalSupply",
      "outputs": [
        {
          "internalType": "uint256",
          "name": "",
          "type": "uint256"
        }
      ],
      "stateMutability": "view",
      "type": "function"
    },
    {
      "inputs": [
        {
          "internalType": "address",
          "name": "to",
          "type": "address"
        },
        {
          "internalType": "uint256",
          "name": "value",
          "type": "uint256"
        }
      ],
      "name": "transfer",
      "outputs": [
        {
          "internalType": "bool",
          "name": "",
          "type": "bool"
        }
      ],
      "stateMutability": "nonpayable",
      "type": "function"
    },
    {
      "inputs": [
        {
          "internalType": "address",
          "name": "from",
          "type": "address"
        },
        {
          "internalType": "address",
          "name": "to",
          "type": "address"
        },
        {
          "internalType": "uint256",
          "name": "value",
          "type": "uint256"
        }
      ],
      "name": "transferFrom",
      "outputs": [
        {
          "internalType": "bool",
          "name": "",
          "type": "bool"
        }
      ],
      "stateMutability": "nonpayable",
      "type": "function"
    },
    {
      "inputs": [
        {
          "internalType": "address",
          "name": "newOwner",
          "type": "address"
        }
      ],
      "name": "transferOwnership",
      "outputs": [],
      "stateMutability": "nonpayable",
      "type": "function"
    },
    {
      "inputs": [
        {
          "internalType": "uint256",
          "name": "assets",
          "type": "uint256"
        },
        {
          "internalType": "address",
          "name": "receiver",
          "type": "address"
        },
        {
          "internalType": "address",
          "name": "owner",
          "type": "address"
        }
      ],
      "name": "withdraw",
      "outputs": [
        {
          "internalType": "uint256",
          "name": "",
          "type": "uint256"
        }
      ],
      "stateMutability": "nonpayable",
      "type": "function"
    }
  ],
  "bytecode": "0x60c060405234801561000f575f5ffd5b506040516116ae3803806116ae83398101604081905261002e9161022a565b80826040518060400160405280601481526020017f4f55434855492d44205661756c742053686172650000000000000000000000008152506040518060400160405280600381526020016227a22b60e91b815250816003908161009191906102fa565b50600461009e82826102fa565b5050505f5f6100b28361011060201b60201c565b91509150816100c25760126100c4565b805b60ff1660a05250506001600160a01b0390811660805281166100ff57604051631e4fbdf760e01b81525f600482015260240160405180910390fd5b610108816101a1565b5050506103b4565b5f808061011c60405190565b6040805160048152602481019091526020810180516001600160e01b0390811663313ce56760e01b179091529192505f91829161015c918891906101f216565b50909250905061016b83604052565b818015610179575060203d10155b8015610186575060ff8111155b610191575f5f610195565b6001815b94509450505050915091565b600580546001600160a01b038381166001600160a01b0319831681179093556040519116919082907f8be0079c531659141344cd1fd0a4f28419497f9722a3daafe3b4186f6b6457e0905f90a35050565b5f5f5f60405f855160208701885afa92505f51915060205190509250925092565b6001600160a01b0381168114610227575f5ffd5b50565b5f5f6040838503121561023b575f5ffd5b825161024681610213565b602084015190925061025781610213565b809150509250929050565b634e487b7160e01b5f52604160045260245ffd5b600181811c9082168061028a57607f821691505b6020821081036102a857634e487b7160e01b5f52602260045260245ffd5b50919050565b601f8211156102f557805f5260205f20601f840160051c810160208510156102d35750805b601f840160051c820191505b818110156102f2575f81556001016102df565b50505b505050565b81516001600160401b0381111561031357610313610262565b610327816103218454610276565b846102ae565b6020601f821160018114610359575f83156103425750848201515b5f19600385901b1c1916600184901b1784556102f2565b5f84815260208120601f198516915b828110156103885787850151825560209485019460019092019101610368565b50848210156103a557868401515f19600387901b60f8161c191681555b50505050600190811b01905550565b60805160a0516112c46103ea5f395f61085b01525f818161026f015281816103ff01528181610c2a0152610cc201526112c45ff3fe608060405234801561000f575f5ffd5b50600436106101bb575f3560e01c80638da5cb5b116100f3578063c63d75b611610093578063d905777e1161006e578063d905777e1461039e578063dd62ed3e146103b1578063ef8b30f714610378578063f2fde38b146103e9575f5ffd5b8063c63d75b6146102a7578063c6e6f59214610378578063ce96cb771461038b575f5ffd5b8063a9059cbb116100ce578063a9059cbb1461032c578063b3d7f6b91461033f578063b460af9414610352578063ba08765214610365575f5ffd5b80638da5cb5b1461030057806394bf804d1461031157806395d89b4114610324575f5ffd5b8063313ce5671161015e5780634cdad506116101395780634cdad506146101ef5780636e553f65146102bb57806370a08231146102ce578063715018a6146102f6575f5ffd5b8063313ce5671461025357806338d52e0f1461026d578063402d267d146102a7575f5ffd5b8063095ea7b311610199578063095ea7b3146102025780630a28a4771461022557806318160ddd1461023857806323b872dd14610240575f5ffd5b806301e1d114146101bf57806306fdde03146101da57806307a2d13a146101ef575b5f5ffd5b6101c76103fc565b6040519081526020015b60405180910390f35b6101e261048b565b6040516101d19190610f2b565b6101c76101fd366004610f60565b61051b565b610215610210366004610f92565b61052c565b60405190151581526020016101d1565b6101c7610233366004610f60565b610543565b6002546101c7565b61021561024e366004610fba565b61054f565b61025b610574565b60405160ff90911681526020016101d1565b7f00000000000000000000000000000000000000000000000000000000000000005b6040516001600160a01b0390911681526020016101d1565b6101c76102b5366004610ff4565b505f1990565b6101c76102c936600461100d565b61057d565b6101c76102dc366004610ff4565b6001600160a01b03165f9081526020819052604090205490565b6102fe6105ae565b005b6005546001600160a01b031661028f565b6101c761031f36600461100d565b6105c1565b6101e26105dc565b61021561033a366004610f92565b6105eb565b6101c761034d366004610f60565b6105f8565b6101c7610360366004611037565b610604565b6101c7610373366004611037565b61065a565b6101c7610386366004610f60565b6106a7565b6101c7610399366004610ff4565b6106b2565b6101c76103ac366004610ff4565b6106bb565b6101c76103bf366004611070565b6001600160a01b039182165f90815260016020908152604080832093909416825291909152205490565b6102fe6103f7366004610ff4565b6106d8565b5f7f00000000000000000000000000000000000000000000000000000000000000006040516370a0823160e01b81523060048201526001600160a01b0391909116906370a0823190602401602060405180830381865afa158015610462573d5f5f3e3d5ffd5b505050506040513d601f19601f820116820180604052508101906104869190611098565b905090565b60606003805461049a906110af565b80601f01602080910402602001604051908101604052809291908181526020018280546104c6906110af565b80156105115780601f106104e857610100808354040283529160200191610511565b820191905f5260205f20905b8154815290600101906020018083116104f457829003601f168201915b5050505050905090565b5f610526825f610715565b92915050565b5f3361053981858561074d565b5060019392505050565b5f61052682600161075f565b5f3361055c85828561078e565b6105678585856107f7565b60019150505b9392505050565b5f610486610854565b5f5f1961058e565b60405180910390fd5b5f610598856106a7565b90506105a63385878461087f565b949350505050565b6105b66108ef565b6105bf5f61091c565b565b5f5f195f6105ce856105f8565b90506105a63385838861087f565b60606004805461049a906110af565b5f336105398185856107f7565b5f610526826001610715565b5f5f61060f836106b2565b90508085111561063857828582604051633fa733bb60e21b8152600401610585939291906110e7565b5f61064286610543565b9050610651338686898561096d565b95945050505050565b5f5f610665836106bb565b90508085111561068e57828582604051632e52afbb60e21b8152600401610585939291906110e7565b5f6106988661051b565b9050610651338686848a61096d565b5f610526825f61075f565b5f6105266101fd835b6001600160a01b0381165f90815260208190526040812054610526565b6106e06108ef565b6001600160a01b03811661070957604051631e4fbdf760e01b81525f6004820152602401610585565b6107128161091c565b50565b5f61056d6107216103fc565b61072c90600161111c565b6107375f600a611212565b600254610744919061111c565b85919085610a0c565b61075a8383836001610a4e565b505050565b5f61056d61076e82600a611212565b60025461077b919061111c565b6107836103fc565b61074490600161111c565b6001600160a01b038381165f908152600160209081526040808320938616835292905220545f198110156107f157818110156107e357828183604051637dc7a0d960e11b8152600401610585939291906110e7565b6107f184848484035f610a4e565b50505050565b6001600160a01b03831661082057604051634b637e8f60e11b81525f6004820152602401610585565b6001600160a01b0382166108495760405163ec442f0560e01b81525f6004820152602401610585565b61075a838383610b12565b5f610486817f0000000000000000000000000000000000000000000000000000000000000000611220565b6108898483610c25565b6108938382610c55565b826001600160a01b0316846001600160a01b03167fdcbc1c05240f31ff3ad067ef1ee35ce4997762752e3a095284754544f4c709d784846040516108e1929190918252602082015260400190565b60405180910390a350505050565b6005546001600160a01b031633146105bf5760405163118cdaa760e01b8152336004820152602401610585565b600580546001600160a01b038381166001600160a01b0319831681179093556040519116919082907f8be0079c531659141344cd1fd0a4f28419497f9722a3daafe3b4186f6b6457e0905f90a35050565b826001600160a01b0316856001600160a01b0316146109915761099183868361078e565b61099b8382610c89565b6109a58483610cbd565b826001600160a01b0316846001600160a01b0316866001600160a01b03167ffbde797d201c681b91056529119e0b02407c7bb96a4a2c75c01fc9667232c8db85856040516109fd929190918252602082015260400190565b60405180910390a45050505050565b5f610a39610a1983610ce8565b8015610a3457505f8480610a2f57610a2f611239565b868809115b151590565b610a44868686610d14565b610651919061111c565b6001600160a01b038416610a775760405163e602df0560e01b81525f6004820152602401610585565b6001600160a01b038316610aa057604051634a1406b160e11b81525f6004820152602401610585565b6001600160a01b038085165f90815260016020908152604080832093871683529290522082905580156107f157826001600160a01b0316846001600160a01b03167f8c5be1e5ebec7d5bd14f71427d1e84f3dd0314c0f7b2291e5b200ac8c7c3b925846040516108e191815260200190565b6001600160a01b038316610b3c578060025f828254610b31919061111c565b90915550610b999050565b6001600160a01b0383165f9081526020819052604090205481811015610b7b5783818360405163391434e360e21b8152600401610585939291906110e7565b6001600160a01b0384165f9081526020819052604090209082900390555b6001600160a01b038216610bb557600280548290039055610bd3565b6001600160a01b0382165f9081526020819052604090208054820190555b816001600160a01b0316836001600160a01b03167fddf252ad1be2c89b69c2b068fc378daa952ba7f163c4a11628f55a4df523b3ef83604051610c1891815260200190565b60405180910390a3505050565b610c517f0000000000000000000000000000000000000000000000000000000000000000833084610dc4565b5050565b6001600160a01b038216610c7e5760405163ec442f0560e01b81525f6004820152602401610585565b610c515f8383610b12565b6001600160a01b038216610cb257604051634b637e8f60e11b81525f6004820152602401610585565b610c51825f83610b12565b610c517f00000000000000000000000000000000000000000000000000000000000000008383610dfa565b5f6002826003811115610cfd57610cfd61124d565b610d079190611261565b60ff166001149050919050565b5f5f5f610d218686610e2f565b91509150815f03610d4557838181610d3b57610d3b611239565b049250505061056d565b818411610d5c57610d5c6003851502601118610e4b565b5f848688095f868103871696879004966002600389028118808a02820302808a02820302808a02820302808a02820302808a02820302808a02909103029181900381900460010185841190960395909502919093039390930492909217029150509392505050565b610dd2848484846001610e5c565b6107f157604051635274afe760e01b81526001600160a01b0385166004820152602401610585565b610e078383836001610ec9565b61075a57604051635274afe760e01b81526001600160a01b0384166004820152602401610585565b5f805f1983850993909202808410938190039390930393915050565b634e487b715f52806020526024601cfd5b6040516323b872dd60e01b5f8181526001600160a01b038781166004528616602452604485905291602083606481808c5af1925060015f51148316610eb8578383151615610eac573d5f823e3d81fd5b5f883b113d1516831692505b604052505f60605295945050505050565b60405163a9059cbb60e01b5f8181526001600160a01b038616600452602485905291602083604481808b5af1925060015f51148316610f1f578383151615610f13573d5f823e3d81fd5b5f873b113d1516831692505b60405250949350505050565b602081525f82518060208401528060208501604085015e5f604082850101526040601f19601f83011684010191505092915050565b5f60208284031215610f70575f5ffd5b5035919050565b80356001600160a01b0381168114610f8d575f5ffd5b919050565b5f5f60408385031215610fa3575f5ffd5b610fac83610f77565b946020939093013593505050565b5f5f5f60608486031215610fcc575f5ffd5b610fd584610f77565b9250610fe360208501610f77565b929592945050506040919091013590565b5f60208284031215611004575f5ffd5b61056d82610f77565b5f5f6040838503121561101e575f5ffd5b8235915061102e60208401610f77565b90509250929050565b5f5f5f60608486031215611049575f5ffd5b8335925061105960208501610f77565b915061106760408501610f77565b90509250925092565b5f5f60408385031215611081575f5ffd5b61108a83610f77565b915061102e60208401610f77565b5f602082840312156110a8575f5ffd5b5051919050565b600181811c908216806110c357607f821691505b6020821081036110e157634e487b7160e01b5f52602260045260245ffd5b50919050565b6001600160a01b039390931683526020830191909152604082015260600190565b634e487b7160e01b5f52601160045260245ffd5b8082018082111561052657610526611108565b6001815b600184111561116a5780850481111561114e5761114e611108565b600184161561115c57908102905b60019390931c928002611133565b935093915050565b5f8261118057506001610526565b8161118c57505f610526565b81600181146111a257600281146111ac576111c8565b6001915050610526565b60ff8411156111bd576111bd611108565b50506001821b610526565b5060208310610133831016604e8410600b84101617156111eb575081810a610526565b6111f75f19848461112f565b805f190482111561120a5761120a611108565b029392505050565b5f61056d60ff841683611172565b60ff818116838216019081111561052657610526611108565b634e487b7160e01b5f52601260045260245ffd5b634e487b7160e01b5f52602160045260245ffd5b5f60ff83168061127f57634e487b7160e01b5f52601260045260245ffd5b8060ff8416069150509291505056fea2646970667358221220edb06e8f0ecd434f2327ae23dc5e849d84ac2e5c6aa8accf741f6dda8997588f64736f6c634300081e0033",
  "linkReferences": {},
  "deployedLinkReferences": {},
  "immutableReferences": {
    "1164": [
      {
        "length": 32,
        "start": 623
      },
      {
        "length": 32,
        "start": 1023
      },
      {
        "length": 32,
        "start": 3114
      },
      {
        "length": 32,
        "start": 3266
      }
    ],
    "1166": [
      {
        "length": 32,
        "start": 2139
      }
    ]
  },
  "inputSourceName": "project/contracts/VaultD.sol",
  "buildInfoId": "solc-0_8_30-0fc9209f8e6e5bcf00793046db7e68a30dcf7949"
}