{
  "_format": "hh3-artifact-1",
  "contractName": "VaultMockYield",
  "sourceName": "contracts/VaultMockYield.sol",
  "abi": [
    {
      "inputs": [
        {
          "internalType": "contract IERC20",
          "name": "asset_",
          "type": "address"
        },
        {
          "internalType": "address",
          "name": "owner_",
          "type": "address"
        }
      ],
      "stateMutability": "nonpayable",
      "type": "constructor"
    },
    {
      "inputs": [
        {
          "internalType": "address",
          "name": "spender",
          "type": "address"
        },
        {
          "internalType": "uint256",
          "name": "allowance",
          "type": "uint256"
        },
        {
          "internalType": "uint256",
          "name": "needed",
          "type": "uint256"
        }
      ],
      "name": "ERC20InsufficientAllowance",
      "type": "error"
    },
    {
      "inputs": [
        {
          "internalType": "address",
          "name": "sender",
          "type": "address"
        },
        {
          "internalType": "uint256",
          "name": "balance",
          "type": "uint256"
        },
        {
          "internalType": "uint256",
          "name": "needed",
          "type": "uint256"
        }
      ],
      "name": "ERC20InsufficientBalance",
      "type": "error"
    },
    {
      "inputs": [
        {
          "internalType": "address",
          "name": "approver",
          "type": "address"
        }
      ],
      "name": "ERC20InvalidApprover",
      "type": "error"
    },
    {
      "inputs": [
        {
          "internalType": "address",
          "name": "receiver",
          "type": "address"
        }
      ],
      "name": "ERC20InvalidReceiver",
      "type": "error"
    },
    {
      "inputs": [
        {
          "internalType": "address",
          "name": "sender",
          "type": "address"
        }
      ],
      "name": "ERC20InvalidSender",
      "type": "error"
    },
    {
      "inputs": [
        {
          "internalType": "address",
          "name": "spender",
          "type": "address"
        }
      ],
      "name": "ERC20InvalidSpender",
      "type": "error"
    },
    {
      "inputs": [
        {
          "internalType": "address",
          "name": "receiver",
          "type": "address"
        },
        {
          "internalType": "uint256",
          "name": "assets",
          "type": "uint256"
        },
        {
          "internalType": "uint256",
          "name": "max",
          "type": "uint256"
        }
      ],
      "name": "ERC4626ExceededMaxDeposit",
      "type": "error"
    },
    {
      "inputs": [
        {
          "internalType": "address",
          "name": "receiver",
          "type": "address"
        },
        {
          "internalType": "uint256",
          "name": "shares",
          "type": "uint256"
        },
        {
          "internalType": "uint256",
          "name": "max",
          "type": "uint256"
        }
      ],
      "name": "ERC4626ExceededMaxMint",
      "type": "error"
    },
    {
      "inputs": [
        {
          "internalType": "address",
          "name": "owner",
          "type": "address"
        },
        {
          "internalType": "uint256",
          "name": "shares",
          "type": "uint256"
        },
        {
          "internalType": "uint256",
          "name": "max",
          "type": "uint256"
        }
      ],
      "name": "ERC4626ExceededMaxRedeem",
      "type": "error"
    },
    {
      "inputs": [
        {
          "internalType": "address",
          "name": "owner",
          "type": "address"
        },
        {
          "internalType": "uint256",
          "name": "assets",
          "type": "uint256"
        },
        {
          "internalType": "uint256",
          "name": "max",
          "type": "uint256"
        }
      ],
      "name": "ERC4626ExceededMaxWithdraw",
      "type": "error"
    },
    {
      "inputs": [
        {
          "internalType": "uint256",
          "name": "rateBps",
          "type": "uint256"
        }
      ],
      "name": "MockRateTooHigh",
      "type": "error"
    },
    {
      "inputs": [
        {
          "internalType": "address",
          "name": "owner",
          "type": "address"
        }
      ],
      "name": "OwnableInvalidOwner",
      "type": "error"
    },
    {
      "inputs": [
        {
          "internalType": "address",
          "name": "account",
          "type": "address"
        }
      ],
      "name": "OwnableUnauthorizedAccount",
      "type": "error"
    },
    {
      "inputs": [
        {
          "internalType": "address",
          "name": "token",
          "type": "address"
        }
      ],
      "name": "SafeERC20FailedOperation",
      "type": "error"
    },
    {
      "anonymous": false,
      "inputs": [
        {
          "indexed": true,
          "internalType": "address",
          "name": "owner",
          "type": "address"
        },
        {
          "indexed": true,
          "internalType": "address",
          "name": "spender",
          "type": "address"
        },
        {
          "indexed": false,
          "internalType": "uint256",
          "name": "value",
          "type": "uint256"
        }
      ],
      "name": "Approval",
      "type": "event"
    },
    {
      "anonymous": false,
      "inputs": [
        {
          "indexed": true,
          "internalType": "address",
          "name": "sender",
          "type": "address"
        },
        {
          "indexed": true,
          "internalType": "address",
          "name": "owner",
          "type": "address"
        },
        {
          "indexed": false,
          "internalType": "uint256",
          "name": "assets",
          "type": "uint256"
        },
        {
          "indexed": false,
          "internalType": "uint256",
          "name": "shares",
          "type": "uint256"
        }
      ],
      "name": "Deposit",
      "type": "event"
    },
    {
      "anonymous": false,
      "inputs": [
        {
          "indexed": false,
          "internalType": "uint256",
          "name": "oldRateBps",
          "type": "uint256"
        },
        {
          "indexed": false,
          "internalType": "uint256",
          "name": "newRateBps",
          "type": "uint256"
        }
      ],
      "name": "MockRateUpdated",
      "type": "event"
    },
    {
      "anonymous": false,
      "inputs": [
        {
          "indexed": true,
          "internalType": "address",
          "name": "previousOwner",
          "type": "address"
        },
        {
          "indexed": true,
          "internalType": "address",
          "name": "newOwner",
          "type": "address"
        }
      ],
      "name": "OwnershipTransferred",
      "type": "event"
    },
    {
      "anonymous": false,
      "inputs": [
        {
          "indexed": true,
          "internalType": "address",
          "name": "from",
          "type": "address"
        },
        {
          "indexed": true,
          "internalType": "address",
          "name": "to",
          "type": "address"
        },
        {
          "indexed": false,
          "internalType": "uint256",
          "name": "value",
          "type": "uint256"
        }
      ],
      "name": "Transfer",
      "type": "event"
    },
    {
      "anonymous": false,
      "inputs": [
        {
          "indexed": true,
          "internalType": "address",
          "name": "sender",
          "type": "address"
        },
        {
          "indexed": true,
          "internalType": "address",
          "name": "receiver",
          "type": "address"
        },
        {
          "indexed": true,
          "internalType": "address",
          "name": "owner",
          "type": "address"
        },
        {
          "indexed": false,
          "internalType": "uint256",
          "name": "assets",
          "type": "uint256"
        },
        {
          "indexed": false,
          "internalType": "uint256",
          "name": "shares",
          "type": "uint256"
        }
      ],
      "name": "Withdraw",
      "type": "event"
    },
    {
      "anonymous": false,
      "inputs": [
        {
          "indexed": false,
          "internalType": "uint256",
          "name": "yieldAmount",
          "type": "uint256"
        },
        {
          "indexed": false,
          "internalType": "uint256",
          "name": "newTotalAssets",
          "type": "uint256"
        }
      ],
      "name": "YieldAccrued",
      "type": "event"
    },
    {
      "inputs": [],
      "name": "MAX_RATE_BPS",
      "outputs": [
        {
          "internalType": "uint256",
          "name": "",
          "type": "uint256"
        }
      ],
      "stateMutability": "view",
      "type": "function"
    },
    {
      "inputs": [],
      "name": "accrueYield",
      "outputs": [],
      "stateMutability": "nonpayable",
      "type": "function"
    },
    {
      "inputs": [
        {
          "internalType": "address",
          "name": "owner",
          "type": "address"
        },
        {
          "internalType": "address",
          "name": "spender",
          "type": "address"
        }
      ],
      "name": "allowance",
      "outputs": [
        {
          "internalType": "uint256",
          "name": "",
          "type": "uint256"
        }
      ],
      "stateMutability": "view",
      "type": "function"
    },
    {
      "inputs": [
        {
          "internalType": "address",
          "name": "spender",
          "type": "address"
        },
        {
          "internalType": "uint256",
          "name": "value",
          "type": "uint256"
        }
      ],
      "name": "approve",
      "outputs": [
        {
          "internalType": "bool",
          "name": "",
          "type": "bool"
        }
      ],
      "stateMutability": "nonpayable",
      "type": "function"
    },
    {
      "inputs": [],
      "name": "asset",
      "outputs": [
        {
          "internalType": "address",
          "name": "",
          "type": "address"
        }
      ],
      "stateMutability": "view",
      "type": "function"
    },
    {
      "inputs": [
        {
          "internalType": "address",
          "name": "account",
          "type": "address"
        }
      ],
      "name": "balanceOf",
      "outputs": [
        {
          "internalType": "uint256",
          "name": "",
          "type": "uint256"
        }
      ],
      "stateMutability": "view",
      "type": "function"
    },
    {
      "inputs": [
        {
          "internalType": "uint256",
          "name": "shares",
          "type": "uint256"
        }
      ],
      "name": "convertToAssets",
      "outputs": [
        {
          "internalType": "uint256",
          "name": "",
          "type": "uint256"
        }
      ],
      "stateMutability": "view",
      "type": "function"
    },
    {
      "inputs": [
        {
          "internalType": "uint256",
          "name": "assets",
          "type": "uint256"
        }
      ],
      "name": "convertToShares",
      "outputs": [
        {
          "internalType": "uint256",
          "name": "",
          "type": "uint256"
        }
      ],
      "stateMutability": "view",
      "type": "function"
    },
    {
      "inputs": [],
      "name": "decimals",
      "outputs": [
        {
          "internalType": "uint8",
          "name": "",
          "type": "uint8"
        }
      ],
      "stateMutability": "view",
      "type": "function"
    },
    {
      "inputs": [
        {
          "internalType": "uint256",
          "name": "assets",
          "type": "uint256"
        },
        {
          "internalType": "address",
          "name": "receiver",
          "type": "address"
        }
      ],
      "name": "deposit",
      "outputs": [
        {
          "internalType": "uint256",
          "name": "",
          "type": "uint256"
        }
      ],
      "stateMutability": "nonpayable",
      "type": "function"
    },
    {
      "inputs": [],
      "name": "lastAccrualTimestamp",
      "outputs": [
        {
          "internalType": "uint256",
          "name": "",
          "type": "uint256"
        }
      ],
      "stateMutability": "view",
      "type": "function"
    },
    {
      "inputs": [
        {
          "internalType": "address",
          "name": "",
          "type": "address"
        }
      ],
      "name": "maxDeposit",
      "outputs": [
        {
          "internalType": "uint256",
          "name": "",
          "type": "uint256"
        }
      ],
      "stateMutability": "view",
      "type": "function"
    },
    {
      "inputs": [
        {
          "internalType": "address",
          "name": "",
          "type": "address"
        }
      ],
      "name": "maxMint",
      "outputs": [
        {
          "internalType": "uint256",
          "name": "",
          "type": "uint256"
        }
      ],
      "stateMutability": "view",
      "type": "function"
    },
    {
      "inputs": [
        {
          "internalType": "address",
          "name": "owner",
          "type": "address"
        }
      ],
      "name": "maxRedeem",
      "outputs": [
        {
          "internalType": "uint256",
          "name": "",
          "type": "uint256"
        }
      ],
      "stateMutability": "view",
      "type": "function"
    },
    {
      "inputs": [
        {
          "internalType": "address",
          "name": "owner",
          "type": "address"
        }
      ],
      "name": "maxWithdraw",
      "outputs": [
        {
          "internalType": "uint256",
          "name": "",
          "type": "uint256"
        }
      ],
      "stateMutability": "view",
      "type": "function"
    },
    {
      "inputs": [
        {
          "internalType": "uint256",
          "name": "shares",
          "type": "uint256"
        },
        {
          "internalType": "address",
          "name": "receiver",
          "type": "address"
        }
      ],
      "name": "mint",
      "outputs": [
        {
          "internalType": "uint256",
          "name": "",
          "type": "uint256"
        }
      ],
      "stateMutability": "nonpayable",
      "type": "function"
    },
    {
      "inputs": [],
      "name": "mockRateBps",
      "outputs": [
        {
          "internalType": "uint256",
          "name": "",
          "type": "uint256"
        }
      ],
      "stateMutability": "view",
      "type": "function"
    },
    {
      "inputs": [],
      "name": "mockUsdc",
      "outputs": [
        {
          "internalType": "contract IMockUSDC",
          "name": "",
          "type": "address"
        }
      ],
      "stateMutability": "view",
      "type": "function"
    },
    {
      "inputs": [],
      "name": "name",
      "outputs": [
        {
          "internalType": "string",
          "name": "",
          "type": "string"
        }
      ],
      "stateMutability": "view",
      "type": "function"
    },
    {
      "inputs": [],
      "name": "owner",
      "outputs": [
        {
          "internalType": "address",
          "name": "",
          "type": "address"
        }
      ],
      "stateMutability": "view",
      "type": "function"
    },
    {
      "inputs": [
        {
          "internalType": "uint256",
          "name": "assets",
          "type": "uint256"
        }
      ],
      "name": "previewDeposit",
      "outputs": [
        {
          "internalType": "uint256",
          "name": "",
          "type": "uint256"
        }
      ],
      "stateMutability": "view",
      "type": "function"
    },
    {
      "inputs": [
        {
          "internalType": "uint256",
          "name": "shares",
          "type": "uint256"
        }
      ],
      "name": "previewMint",
      "outputs": [
        {
          "internalType": "uint256",
          "name": "",
          "type": "uint256"
        }
      ],
      "stateMutability": "view",
      "type": "function"
    },
    {
      "inputs": [
        {
          "internalType": "uint256",
          "name": "shares",
          "type": "uint256"
        }
      ],
      "name": "previewRedeem",
      "outputs": [
        {
          "internalType": "uint256",
          "name": "",
          "type": "uint256"
        }
      ],
      "stateMutability": "view",
      "type": "function"
    },
    {
      "inputs": [
        {
          "internalType": "uint256",
          "name": "assets",
          "type": "uint256"
        }
      ],
      "name": "previewWithdraw",
      "outputs": [
        {
          "internalType": "uint256",
          "name": "",
          "type": "uint256"
        }
      ],
      "stateMutability": "view",
      "type": "function"
    },
    {
      "inputs": [
        {
          "internalType": "uint256",
          "name": "shares",
          "type": "uint256"
        },
        {
          "internalType": "address",
          "name": "receiver",
          "type": "address"
        },
        {
          "internalType": "address",
          "name": "owner",
          "type": "address"
        }
      ],
      "name": "redeem",
      "outputs": [
        {
          "internalType": "uint256",
          "name": "",
          "type": "uint256"
        }
      ],
      "stateMutability": "nonpayable",
      "type": "function"
    },
    {
      "inputs": [],
      "name": "renounceOwnership",
      "outputs": [],
      "stateMutability": "nonpayable",
      "type": "function"
    },
    {
      "inputs": [
        {
          "internalType": "uint256",
          "name": "newRateBps",
          "type": "uint256"
        }
      ],
      "name": "setMockRate",
      "outputs": [],
      "stateMutability": "nonpayable",
      "type": "function"
    },
    {
      "inputs": [],
      "name": "symbol",
      "outputs": [
        {
          "internalType": "string",
          "name": "",
          "type": "string"
        }
      ],
      "stateMutability": "view",
      "type": "function"
    },
    {
      "inputs": [],
      "name": "totalAssets",
      "outputs": [
        {
          "internalType": "uint256",
          "name": "",
          "type": "uint256"
        }
      ],
      "stateMutability": "view",
      "type": "function"
    },
    {
      "inputs": [],
      "name": "totalSupply",
      "outputs": [
        {
          "internalType": "uint256",
          "name": "",
          "type": "uint256"
        }
      ],
      "stateMutability": "view",
      "type": "function"
    },
    {
      "inputs": [
        {
          "internalType": "address",
          "name": "to",
          "type": "address"
        },
        {
          "internalType": "uint256",
          "name": "value",
          "type": "uint256"
        }
      ],
      "name": "transfer",
      "outputs": [
        {
          "internalType": "bool",
          "name": "",
          "type": "bool"
        }
      ],
      "stateMutability": "nonpayable",
      "type": "function"
    },
    {
      "inputs": [
        {
          "internalType": "address",
          "name": "from",
          "type": "address"
        },
        {
          "internalType": "address",
          "name": "to",
          "type": "address"
        },
        {
          "internalType": "uint256",
          "name": "value",
          "type": "uint256"
        }
      ],
      "name": "transferFrom",
      "outputs": [
        {
          "internalType": "bool",
          "name": "",
          "type": "bool"
        }
      ],
      "stateMutability": "nonpayable",
      "type": "function"
    },
    {
      "inputs": [
        {
          "internalType": "address",
          "name": "newOwner",
          "type": "address"
        }
      ],
      "name": "transferOwnership",
      "outputs": [],
      "stateMutability": "nonpayable",
      "type": "function"
    },
    {
      "inputs": [
        {
          "internalType": "uint256",
          "name": "assets",
          "type": "uint256"
        },
        {
          "internalType": "address",
          "name": "receiver",
          "type": "address"
        },
        {
          "internalType": "address",
          "name": "owner",
          "type": "address"
        }
      ],
      "name": "withdraw",
      "outputs": [
        {
          "internalType": "uint256",
          "name": "",
          "type": "uint256"
        }
      ],
      "stateMutability": "nonpayable",
      "type": "function"
    }
  ],
  "bytecode": "0x60e060405234801561000f575f5ffd5b5060405161193638038061193683398101604081905261002e91610239565b80826040518060400160405280601781526020017f4f5543485549204d6f636b205969656c64205661756c74000000000000000000815250604051806040016040528060038152602001624f4d5960e81b81525081600390816100919190610309565b50600461009e8282610309565b5050505f5f6100b28361011f60201b60201c565b91509150816100c25760126100c4565b805b60ff1660a05250506001600160a01b0390811660805281166100ff57604051631e4fbdf760e01b81525f600482015260240160405180910390fd5b610108816101b0565b50506001600160a01b031660c052426007556103c3565b5f808061012b60405190565b6040805160048152602481019091526020810180516001600160e01b0390811663313ce56760e01b179091529192505f91829161016b9188919061020116565b50909250905061017a83604052565b818015610188575060203d10155b8015610195575060ff8111155b6101a0575f5f6101a4565b6001815b94509450505050915091565b600580546001600160a01b038381166001600160a01b0319831681179093556040519116919082907f8be0079c531659141344cd1fd0a4f28419497f9722a3daafe3b4186f6b6457e0905f90a35050565b5f5f5f60405f855160208701885afa92505f51915060205190509250925092565b6001600160a01b0381168114610236575f5ffd5b50565b5f5f6040838503121561024a575f5ffd5b825161025581610222565b602084015190925061026681610222565b809150509250929050565b634e487b7160e01b5f52604160045260245ffd5b600181811c9082168061029957607f821691505b6020821081036102b757634e487b7160e01b5f52602260045260245ffd5b50919050565b601f82111561030457805f5260205f20601f840160051c810160208510156102e25750805b601f840160051c820191505b81811015610301575f81556001016102ee565b50505b505050565b81516001600160401b0381111561032257610322610271565b610336816103308454610285565b846102bd565b6020601f821160018114610368575f83156103515750848201515b5f19600385901b1c1916600184901b178455610301565b5f84815260208120601f198516915b828110156103975787850151825560209485019460019092019101610377565b50848210156103b457868401515f19600387901b60f8161c191681555b50505050600190811b01905550565b60805160a05160c05161152d6104095f395f818161031f01526105bb01525f610b0901525f81816102bb0152818161049e01528181610f450152610fdd015261152d5ff3fe608060405234801561000f575f5ffd5b50600436106101fd575f3560e01c80638da5cb5b11610114578063c0789dcb116100a9578063d1f6bfd111610079578063d1f6bfd114610434578063d905777e1461043d578063dd62ed3e14610450578063ef8b30f71461040e578063f2fde38b14610488575f5ffd5b8063c0789dcb14610405578063c63d75b6146102f3578063c6e6f5921461040e578063ce96cb7714610421575f5ffd5b8063b0c0c264116100e4578063b0c0c264146103c3578063b3d7f6b9146103cc578063b460af94146103df578063ba087652146103f2575f5ffd5b80638da5cb5b1461038457806394bf804d1461039557806395d89b41146103a8578063a9059cbb146103b0575f5ffd5b8063313ce567116101955780634cfe8d1a116101655780634cfe8d1a146103075780636877caa21461031a5780636e553f651461034157806370a0823114610354578063715018a61461037c575f5ffd5b8063313ce5671461029f57806338d52e0f146102b9578063402d267d146102f35780634cdad5061461023b575f5ffd5b8063095ea7b3116101d0578063095ea7b31461024e5780630a28a4771461027157806318160ddd1461028457806323b872dd1461028c575f5ffd5b806301e1d11414610201578063059d9c751461021c57806306fdde031461022657806307a2d13a1461023b575b5f5ffd5b61020961049b565b6040519081526020015b60405180910390f35b61022461052a565b005b61022e610662565b604051610213919061116a565b61020961024936600461119f565b6106f2565b61026161025c3660046111d1565b610703565b6040519015158152602001610213565b61020961027f36600461119f565b61071a565b600254610209565b61026161029a3660046111f9565b610726565b6102a761074b565b60405160ff9091168152602001610213565b7f00000000000000000000000000000000000000000000000000000000000000005b6040516001600160a01b039091168152602001610213565b610209610301366004611233565b505f1990565b61022461031536600461119f565b610754565b6102db7f000000000000000000000000000000000000000000000000000000000000000081565b61020961034f36600461124c565b6107cc565b610209610362366004611233565b6001600160a01b03165f9081526020819052604090205490565b6102246107ef565b6005546001600160a01b03166102db565b6102096103a336600461124c565b610800565b61022e61081b565b6102616103be3660046111d1565b61082a565b61020961271081565b6102096103da36600461119f565b610837565b6102096103ed366004611276565b610843565b610209610400366004611276565b610899565b61020960075481565b61020961041c36600461119f565b6108e6565b61020961042f366004611233565b6108f1565b61020960065481565b61020961044b366004611233565b6108fa565b61020961045e3660046112af565b6001600160a01b039182165f90815260016020908152604080832093909416825291909152205490565b610224610496366004611233565b610917565b5f7f00000000000000000000000000000000000000000000000000000000000000006040516370a0823160e01b81523060048201526001600160a01b0391909116906370a0823190602401602060405180830381865afa158015610501573d5f5f3e3d5ffd5b505050506040513d601f19601f8201168201806040525081019061052591906112d7565b905090565b610532610954565b5f61053b61049b565b90505f6007544261054c9190611302565b42600755905081158061055f5750600654155b80610568575080155b15610571575050565b5f610591826006546105839190611315565b849064496cebb8005f610981565b9050805f0361059f57505050565b6040516340c10f1960e01b8152306004820152602481018290527f00000000000000000000000000000000000000000000000000000000000000006001600160a01b0316906340c10f19906044015f604051808303815f87803b158015610604575f5ffd5b505af1158015610616573d5f5f3e3d5ffd5b505050507ffe2ebf53456a69d7b70affc98b9021c791a9bce3af6fa5d24dfbc2db0f817b548161064461049b565b6040805192835260208301919091520160405180910390a15050505b565b6060600380546106719061132c565b80601f016020809104026020016040519081016040528092919081815260200182805461069d9061132c565b80156106e85780601f106106bf576101008083540402835291602001916106e8565b820191905f5260205f20905b8154815290600101906020018083116106cb57829003601f168201915b5050505050905090565b5f6106fd825f6109c3565b92915050565b5f336107108185856109fb565b5060019392505050565b5f6106fd826001610a0d565b5f33610733858285610a3c565b61073e858585610aa5565b60019150505b9392505050565b5f610525610b02565b61075c610954565b61271081111561078757604051639322919760e01b8152600481018290526024015b60405180910390fd5b600680549082905560408051828152602081018490527fe24439ea71c96f9802d3764b9b8d5070d2bc6cd1222448a50289e709aebf2f88910160405180910390a15050565b5f5f195f6107d9856108e6565b90506107e733858784610b2d565b949350505050565b6107f7610954565b6106605f610b9d565b5f5f195f61080d85610837565b90506107e733858388610b2d565b6060600480546106719061132c565b5f33610710818585610aa5565b5f6106fd8260016109c3565b5f5f61084e836108f1565b90508085111561087757828582604051633fa733bb60e21b815260040161077e93929190611364565b5f6108818661071a565b90506108903386868985610bee565b95945050505050565b5f5f6108a4836108fa565b9050808511156108cd57828582604051632e52afbb60e21b815260040161077e93929190611364565b5f6108d7866106f2565b9050610890338686848a610bee565b5f6106fd825f610a0d565b5f6106fd610249835b6001600160a01b0381165f908152602081905260408120546106fd565b61091f610954565b6001600160a01b03811661094857604051631e4fbdf760e01b81525f600482015260240161077e565b61095181610b9d565b50565b6005546001600160a01b031633146106605760405163118cdaa760e01b815233600482015260240161077e565b5f6109ae61098e83610c8d565b80156109a957505f84806109a4576109a4611385565b868809115b151590565b6109b9868686610cb9565b6108909190611399565b5f6107446109cf61049b565b6109da906001611399565b6109e55f600a61148f565b6002546109f29190611399565b85919085610981565b610a088383836001610d69565b505050565b5f610744610a1c82600a61148f565b600254610a299190611399565b610a3161049b565b6109f2906001611399565b6001600160a01b038381165f908152600160209081526040808320938616835292905220545f19811015610a9f5781811015610a9157828183604051637dc7a0d960e11b815260040161077e93929190611364565b610a9f84848484035f610d69565b50505050565b6001600160a01b038316610ace57604051634b637e8f60e11b81525f600482015260240161077e565b6001600160a01b038216610af75760405163ec442f0560e01b81525f600482015260240161077e565b610a08838383610e2d565b5f610525817f000000000000000000000000000000000000000000000000000000000000000061149d565b610b378483610f40565b610b418382610f70565b826001600160a01b0316846001600160a01b03167fdcbc1c05240f31ff3ad067ef1ee35ce4997762752e3a095284754544f4c709d78484604051610b8f929190918252602082015260400190565b60405180910390a350505050565b600580546001600160a01b038381166001600160a01b0319831681179093556040519116919082907f8be0079c531659141344cd1fd0a4f28419497f9722a3daafe3b4186f6b6457e0905f90a35050565b826001600160a01b0316856001600160a01b031614610c1257610c12838683610a3c565b610c1c8382610fa4565b610c268483610fd8565b826001600160a01b0316846001600160a01b0316866001600160a01b03167ffbde797d201c681b91056529119e0b02407c7bb96a4a2c75c01fc9667232c8db8585604051610c7e929190918252602082015260400190565b60405180910390a45050505050565b5f6002826003811115610ca257610ca26114b6565b610cac91906114ca565b60ff166001149050919050565b5f5f5f610cc68686611003565b91509150815f03610cea57838181610ce057610ce0611385565b0492505050610744565b818411610d0157610d01600385150260111861101f565b5f848688095f868103871696879004966002600389028118808a02820302808a02820302808a02820302808a02820302808a02820302808a02909103029181900381900460010185841190960395909502919093039390930492909217029150509392505050565b6001600160a01b038416610d925760405163e602df0560e01b81525f600482015260240161077e565b6001600160a01b038316610dbb57604051634a1406b160e11b81525f600482015260240161077e565b6001600160a01b038085165f9081526001602090815260408083209387168352929052208290558015610a9f57826001600160a01b0316846001600160a01b03167f8c5be1e5ebec7d5bd14f71427d1e84f3dd0314c0f7b2291e5b200ac8c7c3b92584604051610b8f91815260200190565b6001600160a01b038316610e57578060025f828254610e4c9190611399565b90915550610eb49050565b6001600160a01b0383165f9081526020819052604090205481811015610e965783818360405163391434e360e21b815260040161077e93929190611364565b6001600160a01b0384165f9081526020819052604090209082900390555b6001600160a01b038216610ed057600280548290039055610eee565b6001600160a01b0382165f9081526020819052604090208054820190555b816001600160a01b0316836001600160a01b03167fddf252ad1be2c89b69c2b068fc378daa952ba7f163c4a11628f55a4df523b3ef83604051610f3391815260200190565b60405180910390a3505050565b610f6c7f0000000000000000000000000000000000000000000000000000000000000000833084611030565b5050565b6001600160a01b038216610f995760405163ec442f0560e01b81525f600482015260240161077e565b610f6c5f8383610e2d565b6001600160a01b038216610fcd57604051634b637e8f60e11b81525f600482015260240161077e565b610f6c825f83610e2d565b610f6c7f00000000000000000000000000000000000000000000000000000000000000008383611066565b5f805f1983850993909202808410938190039390930393915050565b634e487b715f52806020526024601cfd5b61103e84848484600161109b565b610a9f57604051635274afe760e01b81526001600160a01b038516600482015260240161077e565b6110738383836001611108565b610a0857604051635274afe760e01b81526001600160a01b038416600482015260240161077e565b6040516323b872dd60e01b5f8181526001600160a01b038781166004528616602452604485905291602083606481808c5af1925060015f511483166110f75783831516156110eb573d5f823e3d81fd5b5f883b113d1516831692505b604052505f60605295945050505050565b60405163a9059cbb60e01b5f8181526001600160a01b038616600452602485905291602083604481808b5af1925060015f5114831661115e578383151615611152573d5f823e3d81fd5b5f873b113d1516831692505b60405250949350505050565b602081525f82518060208401528060208501604085015e5f604082850101526040601f19601f83011684010191505092915050565b5f602082840312156111af575f5ffd5b5035919050565b80356001600160a01b03811681146111cc575f5ffd5b919050565b5f5f604083850312156111e2575f5ffd5b6111eb836111b6565b946020939093013593505050565b5f5f5f6060848603121561120b575f5ffd5b611214846111b6565b9250611222602085016111b6565b929592945050506040919091013590565b5f60208284031215611243575f5ffd5b610744826111b6565b5f5f6040838503121561125d575f5ffd5b8235915061126d602084016111b6565b90509250929050565b5f5f5f60608486031215611288575f5ffd5b83359250611298602085016111b6565b91506112a6604085016111b6565b90509250925092565b5f5f604083850312156112c0575f5ffd5b6112c9836111b6565b915061126d602084016111b6565b5f602082840312156112e7575f5ffd5b5051919050565b634e487b7160e01b5f52601160045260245ffd5b818103818111156106fd576106fd6112ee565b80820281158282048414176106fd576106fd6112ee565b600181811c9082168061134057607f821691505b60208210810361135e57634e487b7160e01b5f52602260045260245ffd5b50919050565b6001600160a01b039390931683526020830191909152604082015260600190565b634e487b7160e01b5f52601260045260245ffd5b808201808211156106fd576106fd6112ee565b6001815b60018411156113e7578085048111156113cb576113cb6112ee565b60018416156113d957908102905b60019390931c9280026113b0565b935093915050565b5f826113fd575060016106fd565b8161140957505f6106fd565b816001811461141f576002811461142957611445565b60019150506106fd565b60ff84111561143a5761143a6112ee565b50506001821b6106fd565b5060208310610133831016604e8410600b8410161715611468575081810a6106fd565b6114745f1984846113ac565b805f1904821115611487576114876112ee565b029392505050565b5f61074460ff8416836113ef565b60ff81811683821601908111156106fd576106fd6112ee565b634e487b7160e01b5f52602160045260245ffd5b5f60ff8316806114e857634e487b7160e01b5f52601260045260245ffd5b8060ff8416069150509291505056fea26469706673582212200dc92c37f3b8e2f8e3b807898b4f1a545af4126ec1080d26414d13dcc4843ced64736f6c634300081e0033",
  "linkReferences": {},
  "deployedLinkReferences": {},
  "immutableReferences": {
    "1164": [
      {
        "length": 32,
        "start": 699
      },
      {
        "length": 32,
        "start": 1182
      },
      {
        "length": 32,
        "start": 3909
      },
      {
        "length": 32,
        "start": 4061
      }
    ],
    "1166": [
      {
        "length": 32,
        "start": 2825
      }
    ],
    "6409": [
      {
        "length": 32,
        "start": 799
      },
      {
        "length": 32,
        "start": 1467
      }
    ]
  },
  "inputSourceName": "project/contracts/VaultMockYield.sol",
  "buildInfoId": "solc-0_8_30-988a31edbdbc7ba635aa482cea812a37f15306f9"
}